{
  "contractName": "CANSign",
  "abi": [
    {
      "inputs": [],
      "payable": false,
      "stateMutability": "nonpayable",
      "type": "constructor"
    },
    {
      "constant": false,
      "inputs": [
        {
          "name": "_hash",
          "type": "string"
        },
        {
          "name": "_name",
          "type": "string"
        },
        {
          "name": "_lastModified",
          "type": "uint256"
        },
        {
          "name": "_uploadedAt",
          "type": "uint256"
        },
        {
          "name": "_expirationDate",
          "type": "uint256"
        },
        {
          "name": "_signers",
          "type": "address[]"
        }
      ],
      "name": "addDocument",
      "outputs": [],
      "payable": false,
      "stateMutability": "nonpayable",
      "type": "function"
    },
    {
      "constant": false,
      "inputs": [
        {
          "name": "_hash",
          "type": "string"
        },
        {
          "name": "_timestamp",
          "type": "uint256"
        }
      ],
      "name": "sign",
      "outputs": [],
      "payable": false,
      "stateMutability": "nonpayable",
      "type": "function"
    },
    {
      "constant": true,
      "inputs": [
        {
          "name": "_hash",
          "type": "string"
        }
      ],
      "name": "getDocumentSigners",
      "outputs": [
        {
          "name": "",
          "type": "address[]"
        }
      ],
      "payable": false,
      "stateMutability": "view",
      "type": "function"
    },
    {
      "constant": true,
      "inputs": [
        {
          "name": "_hash",
          "type": "string"
        }
      ],
      "name": "getDocumentId",
      "outputs": [
        {
          "name": "",
          "type": "string"
        }
      ],
      "payable": false,
      "stateMutability": "view",
      "type": "function"
    },
    {
      "constant": true,
      "inputs": [
        {
          "name": "_hash",
          "type": "string"
        }
      ],
      "name": "getDocumentCreator",
      "outputs": [
        {
          "name": "",
          "type": "address"
        }
      ],
      "payable": false,
      "stateMutability": "view",
      "type": "function"
    },
    {
      "constant": true,
      "inputs": [
        {
          "name": "_hash",
          "type": "string"
        }
      ],
      "name": "getDocumentName",
      "outputs": [
        {
          "name": "",
          "type": "string"
        }
      ],
      "payable": false,
      "stateMutability": "view",
      "type": "function"
    },
    {
      "constant": true,
      "inputs": [
        {
          "name": "_hash",
          "type": "string"
        }
      ],
      "name": "getDocumentExpirationDate",
      "outputs": [
        {
          "name": "",
          "type": "uint256"
        }
      ],
      "payable": false,
      "stateMutability": "view",
      "type": "function"
    },
    {
      "constant": true,
      "inputs": [
        {
          "name": "_hash",
          "type": "string"
        }
      ],
      "name": "getDocumentLastModifiedDate",
      "outputs": [
        {
          "name": "",
          "type": "uint256"
        }
      ],
      "payable": false,
      "stateMutability": "view",
      "type": "function"
    },
    {
      "constant": true,
      "inputs": [
        {
          "name": "_hash",
          "type": "string"
        }
      ],
      "name": "getDocumentUploadedAtDate",
      "outputs": [
        {
          "name": "",
          "type": "uint256"
        }
      ],
      "payable": false,
      "stateMutability": "view",
      "type": "function"
    },
    {
      "constant": true,
      "inputs": [
        {
          "name": "_hash",
          "type": "string"
        },
        {
          "name": "_signer",
          "type": "address"
        }
      ],
      "name": "getSignerEmail",
      "outputs": [
        {
          "name": "",
          "type": "string"
        }
      ],
      "payable": false,
      "stateMutability": "view",
      "type": "function"
    },
    {
      "constant": true,
      "inputs": [
        {
          "name": "_hash",
          "type": "string"
        },
        {
          "name": "_signer",
          "type": "address"
        }
      ],
      "name": "getSignerName",
      "outputs": [
        {
          "name": "",
          "type": "string"
        }
      ],
      "payable": false,
      "stateMutability": "view",
      "type": "function"
    },
    {
      "constant": true,
      "inputs": [
        {
          "name": "_hash",
          "type": "string"
        },
        {
          "name": "_signer",
          "type": "address"
        }
      ],
      "name": "getSignerStatus",
      "outputs": [
        {
          "name": "",
          "type": "string"
        }
      ],
      "payable": false,
      "stateMutability": "view",
      "type": "function"
    },
    {
      "constant": true,
      "inputs": [
        {
          "name": "_hash",
          "type": "string"
        },
        {
          "name": "_signer",
          "type": "address"
        }
      ],
      "name": "getSignerTimestamp",
      "outputs": [
        {
          "name": "",
          "type": "uint256"
        }
      ],
      "payable": false,
      "stateMutability": "view",
      "type": "function"
    },
    {
      "constant": true,
      "inputs": [
        {
          "name": "_hash",
          "type": "string"
        },
        {
          "name": "_signer",
          "type": "address"
        }
      ],
      "name": "getSignerBlockNumber",
      "outputs": [
        {
          "name": "",
          "type": "uint256"
        }
      ],
      "payable": false,
      "stateMutability": "view",
      "type": "function"
    }
  ],
  "bytecode": "0x6060604052341561000f57600080fd5b611dc58061001e6000396000f3006060604052600436106100d0576000357c0100000000000000000000000000000000000000000000000000000000900463ffffffff1680630d3873ba146100d55780631782f532146101ca5780632042d725146102bf5780632e77a4e51461032557806364ad3a45146103965780636971552c14610426578063791b63ab146105215780637bfbd37c146105f7578063b0cd7dab146106cd578063c2818fe11461073e578063c7d599ae146107ce578063d2c044801461086b578063d615d31014610960578063ea4d3a40146109d1575b600080fd5b34156100e057600080fd5b61014f600480803590602001908201803590602001908080601f0160208091040260200160405190810160405280939291908181526020018383808284378201915050505050509190803573ffffffffffffffffffffffffffffffffffffffff16906020019091905050610a83565b6040518080602001828103825283818151815260200191508051906020019080838360005b8381101561018f578082015181840152602081019050610174565b50505050905090810190601f1680156101bc5780820380516001836020036101000a031916815260200191505b509250505060405180910390f35b34156101d557600080fd5b610244600480803590602001908201803590602001908080601f0160208091040260200160405190810160405280939291908181526020018383808284378201915050505050509190803573ffffffffffffffffffffffffffffffffffffffff16906020019091905050610bda565b6040518080602001828103825283818151815260200191508051906020019080838360005b83811015610284578082015181840152602081019050610269565b50505050905090810190601f1680156102b15780820380516001836020036101000a031916815260200191505b509250505060405180910390f35b34156102ca57600080fd5b610323600480803590602001908201803590602001908080601f01602080910402602001604051908101604052809392919081815260200183838082843782019150505050505091908035906020019091905050610d31565b005b341561033057600080fd5b610380600480803590602001908201803590602001908080601f01602080910402602001604051908101604052809392919081815260200183838082843782019150505050505091905050610e44565b6040518082815260200191505060405180910390f35b34156103a157600080fd5b610410600480803590602001908201803590602001908080601f0160208091040260200160405190810160405280939291908181526020018383808284378201915050505050509190803573ffffffffffffffffffffffffffffffffffffffff16906020019091905050610ebb565b6040518082815260200191505060405180910390f35b341561043157600080fd5b61051f600480803590602001908201803590602001908080601f0160208091040260200160405190810160405280939291908181526020018383808284378201915050505050509190803590602001908201803590602001908080601f0160208091040260200160405190810160405280939291908181526020018383808284378201915050505050509190803590602001909190803590602001909190803590602001909190803590602001908201803590602001908080602002602001604051908101604052809392919081815260200183836020028082843782019150505050505091905050610f73565b005b341561052c57600080fd5b61057c600480803590602001908201803590602001908080601f01602080910402602001604051908101604052809392919081815260200183838082843782019150505050505091905050611314565b6040518080602001828103825283818151815260200191508051906020019080838360005b838110156105bc5780820151818401526020810190506105a1565b50505050905090810190601f1680156105e95780820380516001836020036101000a031916815260200191505b509250505060405180910390f35b341561060257600080fd5b610652600480803590602001908201803590602001908080601f0160208091040260200160405190810160405280939291908181526020018383808284378201915050505050509190505061142a565b6040518080602001828103825283818151815260200191508051906020019080838360005b83811015610692578082015181840152602081019050610677565b50505050905090810190601f1680156106bf5780820380516001836020036101000a031916815260200191505b509250505060405180910390f35b34156106d857600080fd5b610728600480803590602001908201803590602001908080601f01602080910402602001604051908101604052809392919081815260200183838082843782019150505050505091905050611540565b6040518082815260200191505060405180910390f35b341561074957600080fd5b6107b8600480803590602001908201803590602001908080601f0160208091040260200160405190810160405280939291908181526020018383808284378201915050505050509190803573ffffffffffffffffffffffffffffffffffffffff169060200190919050506115b7565b6040518082815260200191505060405180910390f35b34156107d957600080fd5b610829600480803590602001908201803590602001908080601f0160208091040260200160405190810160405280939291908181526020018383808284378201915050505050509190505061166f565b604051808273ffffffffffffffffffffffffffffffffffffffff1673ffffffffffffffffffffffffffffffffffffffff16815260200191505060405180910390f35b341561087657600080fd5b6108e5600480803590602001908201803590602001908080601f0160208091040260200160405190810160405280939291908181526020018383808284378201915050505050509190803573ffffffffffffffffffffffffffffffffffffffff16906020019091905050611706565b6040518080602001828103825283818151815260200191508051906020019080838360005b8381101561092557808201518184015260208101905061090a565b50505050905090810190601f1680156109525780820380516001836020036101000a031916815260200191505b509250505060405180910390f35b341561096b57600080fd5b6109bb600480803590602001908201803590602001908080601f0160208091040260200160405190810160405280939291908181526020018383808284378201915050505050509190505061185d565b6040518082815260200191505060405180910390f35b34156109dc57600080fd5b610a2c600480803590602001908201803590602001908080601f016020809104026020016040519081016040528093929190818152602001838380828437820191505050505050919050506118d4565b6040518080602001828103825283818151815260200191508051906020019060200280838360005b83811015610a6f578082015181840152602081019050610a54565b505050509050019250505060405180910390f35b610a8b611bff565b6000836040518082805190602001908083835b602083101515610ac35780518252602082019150602081019050602083039250610a9e565b6001836020036101000a038019825116818451168082178552505050505050905001915050908152602001604051809103902060070160008373ffffffffffffffffffffffffffffffffffffffff1673ffffffffffffffffffffffffffffffffffffffff1681526020019081526020016000206004018054600181600116156101000203166002900480601f016020809104026020016040519081016040528092919081815260200182805460018160011615610100020316600290048015610bcd5780601f10610ba257610100808354040283529160200191610bcd565b820191906000526020600020905b815481529060010190602001808311610bb057829003601f168201915b5050505050905092915050565b610be2611bff565b6000836040518082805190602001908083835b602083101515610c1a5780518252602082019150602081019050602083039250610bf5565b6001836020036101000a038019825116818451168082178552505050505050905001915050908152602001604051809103902060070160008373ffffffffffffffffffffffffffffffffffffffff1673ffffffffffffffffffffffffffffffffffffffff1681526020019081526020016000206005018054600181600116156101000203166002900480601f016020809104026020016040519081016040528092919081815260200182805460018160011615610100020316600290048015610d245780601f10610cf957610100808354040283529160200191610d24565b820191906000526020600020905b815481529060010190602001808311610d0757829003601f168201915b5050505050905092915050565b600080836040518082805190602001908083835b602083101515610d6a5780518252602082019150602081019050602083039250610d45565b6001836020036101000a038019825116818451168082178552505050505050905001915050908152602001604051809103902060070160003373ffffffffffffffffffffffffffffffffffffffff1673ffffffffffffffffffffffffffffffffffffffff16815260200190815260200160002090508181600101819055504381600201819055506040805190810160405280600681526020017f7369676e65640000000000000000000000000000000000000000000000000000815250816004019080519060200190610e3e929190611c13565b50505050565b600080826040518082805190602001908083835b602083101515610e7d5780518252602082019150602081019050602083039250610e58565b6001836020036101000a0380198251168184511680821785525050505050509050019150509081526020016040518091039020600401549050919050565b600080836040518082805190602001908083835b602083101515610ef45780518252602082019150602081019050602083039250610ecf565b6001836020036101000a038019825116818451168082178552505050505050905001915050908152602001604051809103902060070160008373ffffffffffffffffffffffffffffffffffffffff1673ffffffffffffffffffffffffffffffffffffffff16815260200190815260200160002060010154905092915050565b856000876040518082805190602001908083835b602083101515610fac5780518252602082019150602081019050602083039250610f87565b6001836020036101000a03801982511681845116808217855250505050505090500191505090815260200160405180910390206000019080519060200190610ff5929190611c13565b50336000876040518082805190602001908083835b60208310151561102f578051825260208201915060208101905060208303925061100a565b6001836020036101000a038019825116818451168082178552505050505050905001915050908152602001604051809103902060010160006101000a81548173ffffffffffffffffffffffffffffffffffffffff021916908373ffffffffffffffffffffffffffffffffffffffff160217905550846000876040518082805190602001908083835b6020831015156110dc57805182526020820191506020810190506020830392506110b7565b6001836020036101000a03801982511681845116808217855250505050505090500191505090815260200160405180910390206002019080519060200190611125929190611c13565b50836000876040518082805190602001908083835b60208310151561115f578051825260208201915060208101905060208303925061113a565b6001836020036101000a038019825116818451168082178552505050505050905001915050908152602001604051809103902060030181905550826000876040518082805190602001908083835b6020831015156111d257805182526020820191506020810190506020830392506111ad565b6001836020036101000a038019825116818451168082178552505050505050905001915050908152602001604051809103902060040181905550816000876040518082805190602001908083835b6020831015156112455780518252602082019150602081019050602083039250611220565b6001836020036101000a038019825116818451168082178552505050505050905001915050908152602001604051809103902060050181905550806000876040518082805190602001908083835b6020831015156112b85780518252602082019150602081019050602083039250611293565b6001836020036101000a03801982511681845116808217855250505050505090500191505090815260200160405180910390206006019080519060200190611301929190611c93565b5061130c86826119d6565b505050505050565b61131c611bff565b6000826040518082805190602001908083835b602083101515611354578051825260208201915060208101905060208303925061132f565b6001836020036101000a03801982511681845116808217855250505050505090500191505090815260200160405180910390206000018054600181600116156101000203166002900480601f01602080910402602001604051908101604052809291908181526020018280546001816001161561010002031660029004801561141e5780601f106113f35761010080835404028352916020019161141e565b820191906000526020600020905b81548152906001019060200180831161140157829003601f168201915b50505050509050919050565b611432611bff565b6000826040518082805190602001908083835b60208310151561146a5780518252602082019150602081019050602083039250611445565b6001836020036101000a03801982511681845116808217855250505050505090500191505090815260200160405180910390206002018054600181600116156101000203166002900480601f0160208091040260200160405190810160405280929190818152602001828054600181600116156101000203166002900480156115345780601f1061150957610100808354040283529160200191611534565b820191906000526020600020905b81548152906001019060200180831161151757829003601f168201915b50505050509050919050565b600080826040518082805190602001908083835b6020831015156115795780518252602082019150602081019050602083039250611554565b6001836020036101000a0380198251168184511680821785525050505050509050019150509081526020016040518091039020600301549050919050565b600080836040518082805190602001908083835b6020831015156115f057805182526020820191506020810190506020830392506115cb565b6001836020036101000a038019825116818451168082178552505050505050905001915050908152602001604051809103902060070160008373ffffffffffffffffffffffffffffffffffffffff1673ffffffffffffffffffffffffffffffffffffffff16815260200190815260200160002060020154905092915050565b600080826040518082805190602001908083835b6020831015156116a85780518252602082019150602081019050602083039250611683565b6001836020036101000a038019825116818451168082178552505050505050905001915050908152602001604051809103902060010160009054906101000a900473ffffffffffffffffffffffffffffffffffffffff169050919050565b61170e611bff565b6000836040518082805190602001908083835b6020831015156117465780518252602082019150602081019050602083039250611721565b6001836020036101000a038019825116818451168082178552505050505050905001915050908152602001604051809103902060070160008373ffffffffffffffffffffffffffffffffffffffff1673ffffffffffffffffffffffffffffffffffffffff1681526020019081526020016000206006018054600181600116156101000203166002900480601f0160208091040260200160405190810160405280929190818152602001828054600181600116156101000203166002900480156118505780601f1061182557610100808354040283529160200191611850565b820191906000526020600020905b81548152906001019060200180831161183357829003601f168201915b5050505050905092915050565b600080826040518082805190602001908083835b6020831015156118965780518252602082019150602081019050602083039250611871565b6001836020036101000a0380198251168184511680821785525050505050509050019150509081526020016040518091039020600501549050919050565b6118dc611d1d565b6000826040518082805190602001908083835b60208310151561191457805182526020820191506020810190506020830392506118ef565b6001836020036101000a03801982511681845116808217855250505050505090500191505090815260200160405180910390206006018054806020026020016040519081016040528092919081815260200182805480156119ca57602002820191906000526020600020905b8160009054906101000a900473ffffffffffffffffffffffffffffffffffffffff1673ffffffffffffffffffffffffffffffffffffffff1681526020019060010190808311611980575b50505050509050919050565b600080600083519250600091505b82821015611bf85783828151811015156119fa57fe5b906020019060200201519050806000866040518082805190602001908083835b602083101515611a3f5780518252602082019150602081019050602083039250611a1a565b6001836020036101000a038019825116818451168082178552505050505050905001915050908152602001604051809103902060070160008373ffffffffffffffffffffffffffffffffffffffff1673ffffffffffffffffffffffffffffffffffffffff16815260200190815260200160002060000160006101000a81548173ffffffffffffffffffffffffffffffffffffffff021916908373ffffffffffffffffffffffffffffffffffffffff1602179055506040805190810160405280600781526020017f70656e64696e67000000000000000000000000000000000000000000000000008152506000866040518082805190602001908083835b602083101515611b615780518252602082019150602081019050602083039250611b3c565b6001836020036101000a038019825116818451168082178552505050505050905001915050908152602001604051809103902060070160008373ffffffffffffffffffffffffffffffffffffffff1673ffffffffffffffffffffffffffffffffffffffff1681526020019081526020016000206004019080519060200190611bea929190611c13565b5081806001019250506119e4565b5050505050565b602060405190810160405280600081525090565b828054600181600116156101000203166002900490600052602060002090601f016020900481019282601f10611c5457805160ff1916838001178555611c82565b82800160010185558215611c82579182015b82811115611c81578251825591602001919060010190611c66565b5b509050611c8f9190611d31565b5090565b828054828255906000526020600020908101928215611d0c579160200282015b82811115611d0b5782518260006101000a81548173ffffffffffffffffffffffffffffffffffffffff021916908373ffffffffffffffffffffffffffffffffffffffff16021790555091602001919060010190611cb3565b5b509050611d199190611d56565b5090565b602060405190810160405280600081525090565b611d5391905b80821115611d4f576000816000905550600101611d37565b5090565b90565b611d9691905b80821115611d9257600081816101000a81549073ffffffffffffffffffffffffffffffffffffffff021916905550600101611d5c565b5090565b905600a165627a7a72305820fa247696ec00af88c2282bfc6c23223620462e0cd59e7074007e07d0fb7da9730029",
  "source": "pragma solidity 0.4.19;\n\ncontract CANSign {\n    \n    struct Signer {\n        address _address;\n        uint256 timestamp;\n        uint256 blockNumber;\n        uint256 dateOfBirth;\n        string status;\n        string name;\n        string email;\n    }\n    \n    struct Document {\n        string hash;\n        address creator;\n        string name;\n        uint256 lastModified;\n        uint256 uploadedAt;\n        uint256 expirationDate;\n        address[] _signers;\n        mapping (address => Signer) signers;\n    }\n    \n    mapping (string => Document) documents;\n    \n    function CANSign() public {}\n    \n    function addDocument(\n        string _hash, \n        string _name,\n        uint256 _lastModified, \n        uint256 _uploadedAt, \n        uint256 _expirationDate, \n        address[] _signers) public {\n\n        documents[_hash].hash = _hash;\n        documents[_hash].creator = msg.sender;\n        documents[_hash].name = _name;\n        documents[_hash].lastModified = _lastModified;\n        documents[_hash].uploadedAt = _uploadedAt;\n        documents[_hash].expirationDate = _expirationDate;\n        documents[_hash]._signers = _signers;\n\n        addSignersToDocument(_hash, _signers);\n    }\n\n    function sign(string _hash, uint256 _timestamp) public {\n        Signer storage signer = documents[_hash].signers[msg.sender];\n\n        signer.timestamp = _timestamp;\n\n        signer.blockNumber = block.number;\n\n        signer.status = 'signed';\n    }\n\n    function addSignersToDocument(string _hash, address[] _signers) internal {\n        uint arrayLength = _signers.length;\n        \n        for (uint i = 0; i < arrayLength; i++) {\n            address signerAddress = _signers[i];\n\n            documents[_hash].signers[signerAddress]._address = signerAddress;\n            documents[_hash].signers[signerAddress].status = 'pending';\n        }\n    }\n\n    function getDocumentSigners(string _hash) view public returns (address[]) {\n        return documents[_hash]._signers;\n    }\n\n    function getDocumentId(string _hash) view public returns (string) {\n        return documents[_hash].hash;\n    }\n\n    function getDocumentCreator(string _hash) view public returns (address) {\n        return documents[_hash].creator;\n    }\n\n    function getDocumentName(string _hash) view public returns (string) {\n        return documents[_hash].name;\n    }\n\n    function getDocumentExpirationDate(string _hash) view public returns (uint256) {\n        return documents[_hash].expirationDate;\n    }\n\n    function getDocumentLastModifiedDate(string _hash) view public returns (uint256) {\n        return documents[_hash].lastModified;\n    }\n\n    function getDocumentUploadedAtDate(string _hash) view public returns (uint256) {\n        return documents[_hash].uploadedAt;\n    }\n\n    function getSignerEmail(string _hash, address _signer) view public returns (string) {\n        return documents[_hash].signers[_signer].email;\n    }\n\n    function getSignerName(string _hash, address _signer) view public returns (string) {\n        return documents[_hash].signers[_signer].name;\n    }\n\n    function getSignerStatus(string _hash, address _signer) view public returns (string) {\n        return documents[_hash].signers[_signer].status;\n    }\n\n    function getSignerTimestamp(string _hash, address _signer) view public returns (uint256) {\n        return documents[_hash].signers[_signer].timestamp;\n    }\n\n    function getSignerBlockNumber(string _hash, address _signer) view public returns (uint256) {\n        return documents[_hash].signers[_signer].blockNumber;\n    }\n}\n",
  "sourcePath": "/Users/GustavoIbarra/Projects/Solidity/cansign-v1/contracts/CANSign.v1.sol",
  "compiler": {
    "name": "solc",
    "version": "0.4.19+commit.c4cbbb05.Emscripten.clang"
  },
  "schemaVersion": "2.0.0",
  "updatedAt": "2018-06-06T02:30:22.838Z"
}