{
  "contractName": "CANSign",
  "abi": [
    {
      "inputs": [],
      "payable": false,
      "stateMutability": "nonpayable",
      "type": "constructor"
    },
    {
      "constant": false,
      "inputs": [
        {
          "name": "_hash",
          "type": "string"
        },
        {
          "name": "_name",
          "type": "string"
        },
        {
          "name": "_lastModified",
          "type": "uint256"
        },
        {
          "name": "_uploadedAt",
          "type": "uint256"
        },
        {
          "name": "_expirationDate",
          "type": "uint256"
        },
        {
          "name": "_signers",
          "type": "address[]"
        }
      ],
      "name": "addDocument",
      "outputs": [],
      "payable": false,
      "stateMutability": "nonpayable",
      "type": "function"
    },
    {
      "constant": false,
      "inputs": [
        {
          "name": "_hash",
          "type": "string"
        },
        {
          "name": "_timestamp",
          "type": "uint256"
        },
        {
          "name": "_email",
          "type": "string"
        }
      ],
      "name": "sign",
      "outputs": [],
      "payable": false,
      "stateMutability": "nonpayable",
      "type": "function"
    },
    {
      "constant": true,
      "inputs": [
        {
          "name": "_hash",
          "type": "string"
        }
      ],
      "name": "getDocumentSigners",
      "outputs": [
        {
          "name": "",
          "type": "address[]"
        }
      ],
      "payable": false,
      "stateMutability": "view",
      "type": "function"
    },
    {
      "constant": true,
      "inputs": [
        {
          "name": "_hash",
          "type": "string"
        }
      ],
      "name": "getDocumentId",
      "outputs": [
        {
          "name": "",
          "type": "string"
        }
      ],
      "payable": false,
      "stateMutability": "view",
      "type": "function"
    },
    {
      "constant": true,
      "inputs": [
        {
          "name": "_hash",
          "type": "string"
        }
      ],
      "name": "getDocumentCreator",
      "outputs": [
        {
          "name": "",
          "type": "address"
        }
      ],
      "payable": false,
      "stateMutability": "view",
      "type": "function"
    },
    {
      "constant": true,
      "inputs": [
        {
          "name": "_hash",
          "type": "string"
        }
      ],
      "name": "getDocumentName",
      "outputs": [
        {
          "name": "",
          "type": "string"
        }
      ],
      "payable": false,
      "stateMutability": "view",
      "type": "function"
    },
    {
      "constant": true,
      "inputs": [
        {
          "name": "_hash",
          "type": "string"
        }
      ],
      "name": "getDocumentExpirationDate",
      "outputs": [
        {
          "name": "",
          "type": "uint256"
        }
      ],
      "payable": false,
      "stateMutability": "view",
      "type": "function"
    },
    {
      "constant": true,
      "inputs": [
        {
          "name": "_hash",
          "type": "string"
        }
      ],
      "name": "getDocumentLastModifiedDate",
      "outputs": [
        {
          "name": "",
          "type": "uint256"
        }
      ],
      "payable": false,
      "stateMutability": "view",
      "type": "function"
    },
    {
      "constant": true,
      "inputs": [
        {
          "name": "_hash",
          "type": "string"
        }
      ],
      "name": "getDocumentUploadedAtDate",
      "outputs": [
        {
          "name": "",
          "type": "uint256"
        }
      ],
      "payable": false,
      "stateMutability": "view",
      "type": "function"
    },
    {
      "constant": true,
      "inputs": [
        {
          "name": "_hash",
          "type": "string"
        },
        {
          "name": "_signer",
          "type": "address"
        }
      ],
      "name": "getSignerEmail",
      "outputs": [
        {
          "name": "",
          "type": "string"
        }
      ],
      "payable": false,
      "stateMutability": "view",
      "type": "function"
    },
    {
      "constant": true,
      "inputs": [
        {
          "name": "_hash",
          "type": "string"
        },
        {
          "name": "_signer",
          "type": "address"
        }
      ],
      "name": "getSignerName",
      "outputs": [
        {
          "name": "",
          "type": "string"
        }
      ],
      "payable": false,
      "stateMutability": "view",
      "type": "function"
    },
    {
      "constant": true,
      "inputs": [
        {
          "name": "_hash",
          "type": "string"
        },
        {
          "name": "_signer",
          "type": "address"
        }
      ],
      "name": "getSignerStatus",
      "outputs": [
        {
          "name": "",
          "type": "string"
        }
      ],
      "payable": false,
      "stateMutability": "view",
      "type": "function"
    },
    {
      "constant": true,
      "inputs": [
        {
          "name": "_hash",
          "type": "string"
        },
        {
          "name": "_signer",
          "type": "address"
        }
      ],
      "name": "getSignerTimestamp",
      "outputs": [
        {
          "name": "",
          "type": "uint256"
        }
      ],
      "payable": false,
      "stateMutability": "view",
      "type": "function"
    },
    {
      "constant": true,
      "inputs": [
        {
          "name": "_hash",
          "type": "string"
        },
        {
          "name": "_signer",
          "type": "address"
        }
      ],
      "name": "getSignerBlockNumber",
      "outputs": [
        {
          "name": "",
          "type": "uint256"
        }
      ],
      "payable": false,
      "stateMutability": "view",
      "type": "function"
    }
  ],
  "bytecode": "0x6060604052341561000f57600080fd5b611e228061001e6000396000f3006060604052600436106100d0576000357c0100000000000000000000000000000000000000000000000000000000900463ffffffff1680630d3873ba146100d55780631782f532146101ca5780632e77a4e5146102bf57806364ad3a45146103305780636971552c146103c0578063791b63ab146104bb5780637bfbd37c14610591578063a2ddebb514610667578063b0cd7dab14610710578063c2818fe114610781578063c7d599ae14610811578063d2c04480146108ae578063d615d310146109a3578063ea4d3a4014610a14575b600080fd5b34156100e057600080fd5b61014f600480803590602001908201803590602001908080601f0160208091040260200160405190810160405280939291908181526020018383808284378201915050505050509190803573ffffffffffffffffffffffffffffffffffffffff16906020019091905050610ac6565b6040518080602001828103825283818151815260200191508051906020019080838360005b8381101561018f578082015181840152602081019050610174565b50505050905090810190601f1680156101bc5780820380516001836020036101000a031916815260200191505b509250505060405180910390f35b34156101d557600080fd5b610244600480803590602001908201803590602001908080601f0160208091040260200160405190810160405280939291908181526020018383808284378201915050505050509190803573ffffffffffffffffffffffffffffffffffffffff16906020019091905050610c1d565b6040518080602001828103825283818151815260200191508051906020019080838360005b83811015610284578082015181840152602081019050610269565b50505050905090810190601f1680156102b15780820380516001836020036101000a031916815260200191505b509250505060405180910390f35b34156102ca57600080fd5b61031a600480803590602001908201803590602001908080601f01602080910402602001604051908101604052809392919081815260200183838082843782019150505050505091905050610d74565b6040518082815260200191505060405180910390f35b341561033b57600080fd5b6103aa600480803590602001908201803590602001908080601f0160208091040260200160405190810160405280939291908181526020018383808284378201915050505050509190803573ffffffffffffffffffffffffffffffffffffffff16906020019091905050610deb565b6040518082815260200191505060405180910390f35b34156103cb57600080fd5b6104b9600480803590602001908201803590602001908080601f0160208091040260200160405190810160405280939291908181526020018383808284378201915050505050509190803590602001908201803590602001908080601f0160208091040260200160405190810160405280939291908181526020018383808284378201915050505050509190803590602001909190803590602001909190803590602001909190803590602001908201803590602001908080602002602001604051908101604052809392919081815260200183836020028082843782019150505050505091905050610ea3565b005b34156104c657600080fd5b610516600480803590602001908201803590602001908080601f01602080910402602001604051908101604052809392919081815260200183838082843782019150505050505091905050611244565b6040518080602001828103825283818151815260200191508051906020019080838360005b8381101561055657808201518184015260208101905061053b565b50505050905090810190601f1680156105835780820380516001836020036101000a031916815260200191505b509250505060405180910390f35b341561059c57600080fd5b6105ec600480803590602001908201803590602001908080601f0160208091040260200160405190810160405280939291908181526020018383808284378201915050505050509190505061135a565b6040518080602001828103825283818151815260200191508051906020019080838360005b8381101561062c578082015181840152602081019050610611565b50505050905090810190601f1680156106595780820380516001836020036101000a031916815260200191505b509250505060405180910390f35b341561067257600080fd5b61070e600480803590602001908201803590602001908080601f0160208091040260200160405190810160405280939291908181526020018383808284378201915050505050509190803590602001909190803590602001908201803590602001908080601f01602080910402602001604051908101604052809392919081815260200183838082843782019150505050505091905050611470565b005b341561071b57600080fd5b61076b600480803590602001908201803590602001908080601f0160208091040260200160405190810160405280939291908181526020018383808284378201915050505050509190505061159d565b6040518082815260200191505060405180910390f35b341561078c57600080fd5b6107fb600480803590602001908201803590602001908080601f0160208091040260200160405190810160405280939291908181526020018383808284378201915050505050509190803573ffffffffffffffffffffffffffffffffffffffff16906020019091905050611614565b6040518082815260200191505060405180910390f35b341561081c57600080fd5b61086c600480803590602001908201803590602001908080601f016020809104026020016040519081016040528093929190818152602001838380828437820191505050505050919050506116cc565b604051808273ffffffffffffffffffffffffffffffffffffffff1673ffffffffffffffffffffffffffffffffffffffff16815260200191505060405180910390f35b34156108b957600080fd5b610928600480803590602001908201803590602001908080601f0160208091040260200160405190810160405280939291908181526020018383808284378201915050505050509190803573ffffffffffffffffffffffffffffffffffffffff16906020019091905050611763565b6040518080602001828103825283818151815260200191508051906020019080838360005b8381101561096857808201518184015260208101905061094d565b50505050905090810190601f1680156109955780820380516001836020036101000a031916815260200191505b509250505060405180910390f35b34156109ae57600080fd5b6109fe600480803590602001908201803590602001908080601f016020809104026020016040519081016040528093929190818152602001838380828437820191505050505050919050506118ba565b6040518082815260200191505060405180910390f35b3415610a1f57600080fd5b610a6f600480803590602001908201803590602001908080601f01602080910402602001604051908101604052809392919081815260200183838082843782019150505050505091905050611931565b6040518080602001828103825283818151815260200191508051906020019060200280838360005b83811015610ab2578082015181840152602081019050610a97565b505050509050019250505060405180910390f35b610ace611c5c565b6000836040518082805190602001908083835b602083101515610b065780518252602082019150602081019050602083039250610ae1565b6001836020036101000a038019825116818451168082178552505050505050905001915050908152602001604051809103902060070160008373ffffffffffffffffffffffffffffffffffffffff1673ffffffffffffffffffffffffffffffffffffffff1681526020019081526020016000206004018054600181600116156101000203166002900480601f016020809104026020016040519081016040528092919081815260200182805460018160011615610100020316600290048015610c105780601f10610be557610100808354040283529160200191610c10565b820191906000526020600020905b815481529060010190602001808311610bf357829003601f168201915b5050505050905092915050565b610c25611c5c565b6000836040518082805190602001908083835b602083101515610c5d5780518252602082019150602081019050602083039250610c38565b6001836020036101000a038019825116818451168082178552505050505050905001915050908152602001604051809103902060070160008373ffffffffffffffffffffffffffffffffffffffff1673ffffffffffffffffffffffffffffffffffffffff1681526020019081526020016000206005018054600181600116156101000203166002900480601f016020809104026020016040519081016040528092919081815260200182805460018160011615610100020316600290048015610d675780601f10610d3c57610100808354040283529160200191610d67565b820191906000526020600020905b815481529060010190602001808311610d4a57829003601f168201915b5050505050905092915050565b600080826040518082805190602001908083835b602083101515610dad5780518252602082019150602081019050602083039250610d88565b6001836020036101000a0380198251168184511680821785525050505050509050019150509081526020016040518091039020600401549050919050565b600080836040518082805190602001908083835b602083101515610e245780518252602082019150602081019050602083039250610dff565b6001836020036101000a038019825116818451168082178552505050505050905001915050908152602001604051809103902060070160008373ffffffffffffffffffffffffffffffffffffffff1673ffffffffffffffffffffffffffffffffffffffff16815260200190815260200160002060010154905092915050565b856000876040518082805190602001908083835b602083101515610edc5780518252602082019150602081019050602083039250610eb7565b6001836020036101000a03801982511681845116808217855250505050505090500191505090815260200160405180910390206000019080519060200190610f25929190611c70565b50336000876040518082805190602001908083835b602083101515610f5f5780518252602082019150602081019050602083039250610f3a565b6001836020036101000a038019825116818451168082178552505050505050905001915050908152602001604051809103902060010160006101000a81548173ffffffffffffffffffffffffffffffffffffffff021916908373ffffffffffffffffffffffffffffffffffffffff160217905550846000876040518082805190602001908083835b60208310151561100c5780518252602082019150602081019050602083039250610fe7565b6001836020036101000a03801982511681845116808217855250505050505090500191505090815260200160405180910390206002019080519060200190611055929190611c70565b50836000876040518082805190602001908083835b60208310151561108f578051825260208201915060208101905060208303925061106a565b6001836020036101000a038019825116818451168082178552505050505050905001915050908152602001604051809103902060030181905550826000876040518082805190602001908083835b60208310151561110257805182526020820191506020810190506020830392506110dd565b6001836020036101000a038019825116818451168082178552505050505050905001915050908152602001604051809103902060040181905550816000876040518082805190602001908083835b6020831015156111755780518252602082019150602081019050602083039250611150565b6001836020036101000a038019825116818451168082178552505050505050905001915050908152602001604051809103902060050181905550806000876040518082805190602001908083835b6020831015156111e857805182526020820191506020810190506020830392506111c3565b6001836020036101000a03801982511681845116808217855250505050505090500191505090815260200160405180910390206006019080519060200190611231929190611cf0565b5061123c8682611a33565b505050505050565b61124c611c5c565b6000826040518082805190602001908083835b602083101515611284578051825260208201915060208101905060208303925061125f565b6001836020036101000a03801982511681845116808217855250505050505090500191505090815260200160405180910390206000018054600181600116156101000203166002900480601f01602080910402602001604051908101604052809291908181526020018280546001816001161561010002031660029004801561134e5780601f106113235761010080835404028352916020019161134e565b820191906000526020600020905b81548152906001019060200180831161133157829003601f168201915b50505050509050919050565b611362611c5c565b6000826040518082805190602001908083835b60208310151561139a5780518252602082019150602081019050602083039250611375565b6001836020036101000a03801982511681845116808217855250505050505090500191505090815260200160405180910390206002018054600181600116156101000203166002900480601f0160208091040260200160405190810160405280929190818152602001828054600181600116156101000203166002900480156114645780601f1061143957610100808354040283529160200191611464565b820191906000526020600020905b81548152906001019060200180831161144757829003601f168201915b50505050509050919050565b600080846040518082805190602001908083835b6020831015156114a95780518252602082019150602081019050602083039250611484565b6001836020036101000a038019825116818451168082178552505050505050905001915050908152602001604051809103902060070160003373ffffffffffffffffffffffffffffffffffffffff1673ffffffffffffffffffffffffffffffffffffffff168152602001908152602001600020905082816001018190555043816002018190555081816006019080519060200190611548929190611c70565b506040805190810160405280600681526020017f7369676e65640000000000000000000000000000000000000000000000000000815250816004019080519060200190611596929190611c70565b5050505050565b600080826040518082805190602001908083835b6020831015156115d657805182526020820191506020810190506020830392506115b1565b6001836020036101000a0380198251168184511680821785525050505050509050019150509081526020016040518091039020600301549050919050565b600080836040518082805190602001908083835b60208310151561164d5780518252602082019150602081019050602083039250611628565b6001836020036101000a038019825116818451168082178552505050505050905001915050908152602001604051809103902060070160008373ffffffffffffffffffffffffffffffffffffffff1673ffffffffffffffffffffffffffffffffffffffff16815260200190815260200160002060020154905092915050565b600080826040518082805190602001908083835b60208310151561170557805182526020820191506020810190506020830392506116e0565b6001836020036101000a038019825116818451168082178552505050505050905001915050908152602001604051809103902060010160009054906101000a900473ffffffffffffffffffffffffffffffffffffffff169050919050565b61176b611c5c565b6000836040518082805190602001908083835b6020831015156117a3578051825260208201915060208101905060208303925061177e565b6001836020036101000a038019825116818451168082178552505050505050905001915050908152602001604051809103902060070160008373ffffffffffffffffffffffffffffffffffffffff1673ffffffffffffffffffffffffffffffffffffffff1681526020019081526020016000206006018054600181600116156101000203166002900480601f0160208091040260200160405190810160405280929190818152602001828054600181600116156101000203166002900480156118ad5780601f10611882576101008083540402835291602001916118ad565b820191906000526020600020905b81548152906001019060200180831161189057829003601f168201915b5050505050905092915050565b600080826040518082805190602001908083835b6020831015156118f357805182526020820191506020810190506020830392506118ce565b6001836020036101000a0380198251168184511680821785525050505050509050019150509081526020016040518091039020600501549050919050565b611939611d7a565b6000826040518082805190602001908083835b602083101515611971578051825260208201915060208101905060208303925061194c565b6001836020036101000a0380198251168184511680821785525050505050509050019150509081526020016040518091039020600601805480602002602001604051908101604052809291908181526020018280548015611a2757602002820191906000526020600020905b8160009054906101000a900473ffffffffffffffffffffffffffffffffffffffff1673ffffffffffffffffffffffffffffffffffffffff16815260200190600101908083116119dd575b50505050509050919050565b600080600083519250600091505b82821015611c55578382815181101515611a5757fe5b906020019060200201519050806000866040518082805190602001908083835b602083101515611a9c5780518252602082019150602081019050602083039250611a77565b6001836020036101000a038019825116818451168082178552505050505050905001915050908152602001604051809103902060070160008373ffffffffffffffffffffffffffffffffffffffff1673ffffffffffffffffffffffffffffffffffffffff16815260200190815260200160002060000160006101000a81548173ffffffffffffffffffffffffffffffffffffffff021916908373ffffffffffffffffffffffffffffffffffffffff1602179055506040805190810160405280600781526020017f70656e64696e67000000000000000000000000000000000000000000000000008152506000866040518082805190602001908083835b602083101515611bbe5780518252602082019150602081019050602083039250611b99565b6001836020036101000a038019825116818451168082178552505050505050905001915050908152602001604051809103902060070160008373ffffffffffffffffffffffffffffffffffffffff1673ffffffffffffffffffffffffffffffffffffffff1681526020019081526020016000206004019080519060200190611c47929190611c70565b508180600101925050611a41565b5050505050565b602060405190810160405280600081525090565b828054600181600116156101000203166002900490600052602060002090601f016020900481019282601f10611cb157805160ff1916838001178555611cdf565b82800160010185558215611cdf579182015b82811115611cde578251825591602001919060010190611cc3565b5b509050611cec9190611d8e565b5090565b828054828255906000526020600020908101928215611d69579160200282015b82811115611d685782518260006101000a81548173ffffffffffffffffffffffffffffffffffffffff021916908373ffffffffffffffffffffffffffffffffffffffff16021790555091602001919060010190611d10565b5b509050611d769190611db3565b5090565b602060405190810160405280600081525090565b611db091905b80821115611dac576000816000905550600101611d94565b5090565b90565b611df391905b80821115611def57600081816101000a81549073ffffffffffffffffffffffffffffffffffffffff021916905550600101611db9565b5090565b905600a165627a7a723058205850809bb5aef85a80a278e94df1d4f33a1f748500bc35f5c9ff93c9044c3e970029",
  "source": "pragma solidity 0.4.19;\n\ncontract CANSign {\n    \n    struct Signer {\n        address _address;\n        uint256 timestamp;\n        uint256 blockNumber;\n        uint256 dateOfBirth;\n        string status;\n        string name;\n        string email;\n    }\n    \n    struct Document {\n        string hash;\n        address creator;\n        string name;\n        uint256 lastModified;\n        uint256 uploadedAt;\n        uint256 expirationDate;\n        address[] _signers;\n        mapping (address => Signer) signers;\n    }\n    \n    mapping (string => Document) documents;\n    \n    function CANSign() public {}\n    \n    function addDocument(\n        string _hash, \n        string _name,\n        uint256 _lastModified, \n        uint256 _uploadedAt, \n        uint256 _expirationDate, \n        address[] _signers) public {\n\n        documents[_hash].hash = _hash;\n        documents[_hash].creator = msg.sender;\n        documents[_hash].name = _name;\n        documents[_hash].lastModified = _lastModified;\n        documents[_hash].uploadedAt = _uploadedAt;\n        documents[_hash].expirationDate = _expirationDate;\n        documents[_hash]._signers = _signers;\n\n        addSignersToDocument(_hash, _signers);\n    }\n\n    function sign(string _hash, uint256 _timestamp, string _email) public {\n        Signer storage signer = documents[_hash].signers[msg.sender];\n\n        signer.timestamp = _timestamp;\n\n        signer.blockNumber = block.number;\n\n        signer.email = _email;\n\n        signer.status = 'signed';\n    }\n\n    function addSignersToDocument(string _hash, address[] _signers) internal {\n        uint arrayLength = _signers.length;\n        \n        for (uint i = 0; i < arrayLength; i++) {\n            address signerAddress = _signers[i];\n\n            documents[_hash].signers[signerAddress]._address = signerAddress;\n            documents[_hash].signers[signerAddress].status = 'pending';\n        }\n    }\n\n    function getDocumentSigners(string _hash) view public returns (address[]) {\n        return documents[_hash]._signers;\n    }\n\n    function getDocumentId(string _hash) view public returns (string) {\n        return documents[_hash].hash;\n    }\n\n    function getDocumentCreator(string _hash) view public returns (address) {\n        return documents[_hash].creator;\n    }\n\n    function getDocumentName(string _hash) view public returns (string) {\n        return documents[_hash].name;\n    }\n\n    function getDocumentExpirationDate(string _hash) view public returns (uint256) {\n        return documents[_hash].expirationDate;\n    }\n\n    function getDocumentLastModifiedDate(string _hash) view public returns (uint256) {\n        return documents[_hash].lastModified;\n    }\n\n    function getDocumentUploadedAtDate(string _hash) view public returns (uint256) {\n        return documents[_hash].uploadedAt;\n    }\n\n    function getSignerEmail(string _hash, address _signer) view public returns (string) {\n        return documents[_hash].signers[_signer].email;\n    }\n\n    function getSignerName(string _hash, address _signer) view public returns (string) {\n        return documents[_hash].signers[_signer].name;\n    }\n\n    function getSignerStatus(string _hash, address _signer) view public returns (string) {\n        return documents[_hash].signers[_signer].status;\n    }\n\n    function getSignerTimestamp(string _hash, address _signer) view public returns (uint256) {\n        return documents[_hash].signers[_signer].timestamp;\n    }\n\n    function getSignerBlockNumber(string _hash, address _signer) view public returns (uint256) {\n        return documents[_hash].signers[_signer].blockNumber;\n    }\n}\n",
  "sourcePath": "/Users/GustavoIbarra/Projects/Solidity/cansign-v1/contracts/CANSign.v1.sol",
  "compiler": {
    "name": "solc",
    "version": "0.4.19+commit.c4cbbb05.Emscripten.clang"
  },
  "schemaVersion": "2.0.0",
  "updatedAt": "2018-06-05T03:27:42.635Z"
}