{
  "contractName": "CANSign",
  "abi": [
    {
      "inputs": [],
      "payable": false,
      "stateMutability": "nonpayable",
      "type": "constructor"
    },
    {
      "constant": false,
      "inputs": [
        {
          "name": "_hash",
          "type": "string"
        },
        {
          "name": "_expirationDate",
          "type": "uint256"
        },
        {
          "name": "_signers",
          "type": "address[]"
        }
      ],
      "name": "addDocument",
      "outputs": [],
      "payable": false,
      "stateMutability": "nonpayable",
      "type": "function"
    },
    {
      "constant": false,
      "inputs": [
        {
          "name": "_hash",
          "type": "string"
        },
        {
          "name": "_timestamp",
          "type": "uint256"
        },
        {
          "name": "_email",
          "type": "string"
        }
      ],
      "name": "sign",
      "outputs": [],
      "payable": false,
      "stateMutability": "nonpayable",
      "type": "function"
    },
    {
      "constant": true,
      "inputs": [
        {
          "name": "_hash",
          "type": "string"
        }
      ],
      "name": "getDocumentSigners",
      "outputs": [
        {
          "name": "",
          "type": "address[]"
        }
      ],
      "payable": false,
      "stateMutability": "view",
      "type": "function"
    },
    {
      "constant": true,
      "inputs": [
        {
          "name": "_hash",
          "type": "string"
        },
        {
          "name": "_signer",
          "type": "address"
        }
      ],
      "name": "getSignerEmail",
      "outputs": [
        {
          "name": "",
          "type": "string"
        }
      ],
      "payable": false,
      "stateMutability": "view",
      "type": "function"
    },
    {
      "constant": true,
      "inputs": [
        {
          "name": "_hash",
          "type": "string"
        },
        {
          "name": "_signer",
          "type": "address"
        }
      ],
      "name": "getSignerName",
      "outputs": [
        {
          "name": "",
          "type": "string"
        }
      ],
      "payable": false,
      "stateMutability": "view",
      "type": "function"
    },
    {
      "constant": true,
      "inputs": [
        {
          "name": "_hash",
          "type": "string"
        },
        {
          "name": "_signer",
          "type": "address"
        }
      ],
      "name": "getSignerTimestamp",
      "outputs": [
        {
          "name": "",
          "type": "uint256"
        }
      ],
      "payable": false,
      "stateMutability": "view",
      "type": "function"
    },
    {
      "constant": true,
      "inputs": [
        {
          "name": "_hash",
          "type": "string"
        }
      ],
      "name": "getDocumentId",
      "outputs": [
        {
          "name": "",
          "type": "string"
        }
      ],
      "payable": false,
      "stateMutability": "view",
      "type": "function"
    },
    {
      "constant": true,
      "inputs": [
        {
          "name": "_hash",
          "type": "string"
        }
      ],
      "name": "getDocumentCreator",
      "outputs": [
        {
          "name": "",
          "type": "address"
        }
      ],
      "payable": false,
      "stateMutability": "view",
      "type": "function"
    },
    {
      "constant": true,
      "inputs": [
        {
          "name": "_hash",
          "type": "string"
        }
      ],
      "name": "getDocumentExpirationDate",
      "outputs": [
        {
          "name": "",
          "type": "uint256"
        }
      ],
      "payable": false,
      "stateMutability": "view",
      "type": "function"
    }
  ],
  "bytecode": "0x6060604052341561000f57600080fd5b61138b8061001e6000396000f300606060405260043610610099576000357c0100000000000000000000000000000000000000000000000000000000900463ffffffff168063066f1b161461009e5780631782f5321461014457806364ad3a4514610239578063791b63ab146102c9578063a2ddebb51461039f578063c7d599ae14610448578063d2c04480146104e5578063d615d310146105da578063ea4d3a401461064b575b600080fd5b34156100a957600080fd5b610142600480803590602001908201803590602001908080601f01602080910402602001604051908101604052809392919081815260200183838082843782019150505050505091908035906020019091908035906020019082018035906020019080806020026020016040519081016040528093929190818152602001838360200280828437820191505050505050919050506106fd565b005b341561014f57600080fd5b6101be600480803590602001908201803590602001908080601f0160208091040260200160405190810160405280939291908181526020018383808284378201915050505050509190803573ffffffffffffffffffffffffffffffffffffffff16906020019091905050610932565b6040518080602001828103825283818151815260200191508051906020019080838360005b838110156101fe5780820151818401526020810190506101e3565b50505050905090810190601f16801561022b5780820380516001836020036101000a031916815260200191505b509250505060405180910390f35b341561024457600080fd5b6102b3600480803590602001908201803590602001908080601f0160208091040260200160405190810160405280939291908181526020018383808284378201915050505050509190803573ffffffffffffffffffffffffffffffffffffffff16906020019091905050610a89565b6040518082815260200191505060405180910390f35b34156102d457600080fd5b610324600480803590602001908201803590602001908080601f01602080910402602001604051908101604052809392919081815260200183838082843782019150505050505091905050610b41565b6040518080602001828103825283818151815260200191508051906020019080838360005b83811015610364578082015181840152602081019050610349565b50505050905090810190601f1680156103915780820380516001836020036101000a031916815260200191505b509250505060405180910390f35b34156103aa57600080fd5b610446600480803590602001908201803590602001908080601f0160208091040260200160405190810160405280939291908181526020018383808284378201915050505050509190803590602001909190803590602001908201803590602001908080601f01602080910402602001604051908101604052809392919081815260200183838082843782019150505050505091905050610c57565b005b341561045357600080fd5b6104a3600480803590602001908201803590602001908080601f01602080910402602001604051908101604052809392919081815260200183838082843782019150505050505091905050610d2d565b604051808273ffffffffffffffffffffffffffffffffffffffff1673ffffffffffffffffffffffffffffffffffffffff16815260200191505060405180910390f35b34156104f057600080fd5b61055f600480803590602001908201803590602001908080601f0160208091040260200160405190810160405280939291908181526020018383808284378201915050505050509190803573ffffffffffffffffffffffffffffffffffffffff16906020019091905050610dc4565b6040518080602001828103825283818151815260200191508051906020019080838360005b8381101561059f578082015181840152602081019050610584565b50505050905090810190601f1680156105cc5780820380516001836020036101000a031916815260200191505b509250505060405180910390f35b34156105e557600080fd5b610635600480803590602001908201803590602001908080601f01602080910402602001604051908101604052809392919081815260200183838082843782019150505050505091905050610f1b565b6040518082815260200191505060405180910390f35b341561065657600080fd5b6106a6600480803590602001908201803590602001908080601f01602080910402602001604051908101604052809392919081815260200183838082843782019150505050505091905050610f92565b6040518080602001828103825283818151815260200191508051906020019060200280838360005b838110156106e95780820151818401526020810190506106ce565b505050509050019250505060405180910390f35b826000846040518082805190602001908083835b6020831015156107365780518252602082019150602081019050602083039250610711565b6001836020036101000a0380198251168184511680821785525050505050509050019150509081526020016040518091039020600001908051906020019061077f9291906111c5565b50336000846040518082805190602001908083835b6020831015156107b95780518252602082019150602081019050602083039250610794565b6001836020036101000a038019825116818451168082178552505050505050905001915050908152602001604051809103902060010160006101000a81548173ffffffffffffffffffffffffffffffffffffffff021916908373ffffffffffffffffffffffffffffffffffffffff160217905550816000846040518082805190602001908083835b6020831015156108665780518252602082019150602081019050602083039250610841565b6001836020036101000a038019825116818451168082178552505050505050905001915050908152602001604051809103902060020181905550806000846040518082805190602001908083835b6020831015156108d957805182526020820191506020810190506020830392506108b4565b6001836020036101000a03801982511681845116808217855250505050505090500191505090815260200160405180910390206003019080519060200190610922929190611245565b5061092d8382611094565b505050565b61093a6112cf565b6000836040518082805190602001908083835b602083101515610972578051825260208201915060208101905060208303925061094d565b6001836020036101000a038019825116818451168082178552505050505050905001915050908152602001604051809103902060040160008373ffffffffffffffffffffffffffffffffffffffff1673ffffffffffffffffffffffffffffffffffffffff1681526020019081526020016000206003018054600181600116156101000203166002900480601f016020809104026020016040519081016040528092919081815260200182805460018160011615610100020316600290048015610a7c5780601f10610a5157610100808354040283529160200191610a7c565b820191906000526020600020905b815481529060010190602001808311610a5f57829003601f168201915b5050505050905092915050565b600080836040518082805190602001908083835b602083101515610ac25780518252602082019150602081019050602083039250610a9d565b6001836020036101000a038019825116818451168082178552505050505050905001915050908152602001604051809103902060040160008373ffffffffffffffffffffffffffffffffffffffff1673ffffffffffffffffffffffffffffffffffffffff16815260200190815260200160002060010154905092915050565b610b496112cf565b6000826040518082805190602001908083835b602083101515610b815780518252602082019150602081019050602083039250610b5c565b6001836020036101000a03801982511681845116808217855250505050505090500191505090815260200160405180910390206000018054600181600116156101000203166002900480601f016020809104026020016040519081016040528092919081815260200182805460018160011615610100020316600290048015610c4b5780601f10610c2057610100808354040283529160200191610c4b565b820191906000526020600020905b815481529060010190602001808311610c2e57829003601f168201915b50505050509050919050565b600080846040518082805190602001908083835b602083101515610c905780518252602082019150602081019050602083039250610c6b565b6001836020036101000a038019825116818451168082178552505050505050905001915050908152602001604051809103902060040160003373ffffffffffffffffffffffffffffffffffffffff1673ffffffffffffffffffffffffffffffffffffffff168152602001908152602001600020905082816001018190555081816004019080519060200190610d269291906111c5565b5050505050565b600080826040518082805190602001908083835b602083101515610d665780518252602082019150602081019050602083039250610d41565b6001836020036101000a038019825116818451168082178552505050505050905001915050908152602001604051809103902060010160009054906101000a900473ffffffffffffffffffffffffffffffffffffffff169050919050565b610dcc6112cf565b6000836040518082805190602001908083835b602083101515610e045780518252602082019150602081019050602083039250610ddf565b6001836020036101000a038019825116818451168082178552505050505050905001915050908152602001604051809103902060040160008373ffffffffffffffffffffffffffffffffffffffff1673ffffffffffffffffffffffffffffffffffffffff1681526020019081526020016000206004018054600181600116156101000203166002900480601f016020809104026020016040519081016040528092919081815260200182805460018160011615610100020316600290048015610f0e5780601f10610ee357610100808354040283529160200191610f0e565b820191906000526020600020905b815481529060010190602001808311610ef157829003601f168201915b5050505050905092915050565b600080826040518082805190602001908083835b602083101515610f545780518252602082019150602081019050602083039250610f2f565b6001836020036101000a0380198251168184511680821785525050505050509050019150509081526020016040518091039020600201549050919050565b610f9a6112e3565b6000826040518082805190602001908083835b602083101515610fd25780518252602082019150602081019050602083039250610fad565b6001836020036101000a038019825116818451168082178552505050505050905001915050908152602001604051809103902060030180548060200260200160405190810160405280929190818152602001828054801561108857602002820191906000526020600020905b8160009054906101000a900473ffffffffffffffffffffffffffffffffffffffff1673ffffffffffffffffffffffffffffffffffffffff168152602001906001019080831161103e575b50505050509050919050565b600080600083519250600091505b828210156111be5783828151811015156110b857fe5b906020019060200201519050806000866040518082805190602001908083835b6020831015156110fd57805182526020820191506020810190506020830392506110d8565b6001836020036101000a038019825116818451168082178552505050505050905001915050908152602001604051809103902060040160008373ffffffffffffffffffffffffffffffffffffffff1673ffffffffffffffffffffffffffffffffffffffff16815260200190815260200160002060000160006101000a81548173ffffffffffffffffffffffffffffffffffffffff021916908373ffffffffffffffffffffffffffffffffffffffff16021790555081806001019250506110a2565b5050505050565b828054600181600116156101000203166002900490600052602060002090601f016020900481019282601f1061120657805160ff1916838001178555611234565b82800160010185558215611234579182015b82811115611233578251825591602001919060010190611218565b5b50905061124191906112f7565b5090565b8280548282559060005260206000209081019282156112be579160200282015b828111156112bd5782518260006101000a81548173ffffffffffffffffffffffffffffffffffffffff021916908373ffffffffffffffffffffffffffffffffffffffff16021790555091602001919060010190611265565b5b5090506112cb919061131c565b5090565b602060405190810160405280600081525090565b602060405190810160405280600081525090565b61131991905b808211156113155760008160009055506001016112fd565b5090565b90565b61135c91905b8082111561135857600081816101000a81549073ffffffffffffffffffffffffffffffffffffffff021916905550600101611322565b5090565b905600a165627a7a72305820eba48c68d553331b16d0168fddaa671d483bdfa445bbbf70c0c061ecd9d0df6e0029",
  "source": "pragma solidity 0.4.19;\n\ncontract CANSign {\n    \n    struct Signer {\n        address _address;\n        uint256 timestamp;\n        uint256 dateOfBirth;\n        string name;\n        string email;\n    }\n    \n    struct Document {\n        string hash;\n        address creator;\n        uint256 expirationDate;\n        address[] _signers;\n        mapping (address => Signer) signers;\n    }\n    \n    mapping (string => Document) documents;\n    \n    function CANSign() public {}\n    \n    function addDocument(\n        string _hash, \n        uint256 _expirationDate, \n        address[] _signers) public {\n\n        documents[_hash].hash = _hash;\n        documents[_hash].creator = msg.sender;\n        documents[_hash].expirationDate = _expirationDate;\n        documents[_hash]._signers = _signers;\n\n        addSignersToDocument(_hash, _signers);\n    }\n\n    function sign(string _hash, uint256 _timestamp, string _email) public {\n        Signer storage signer = documents[_hash].signers[msg.sender];\n\n        signer.timestamp = _timestamp;\n\n        signer.email = _email;\n    }\n\n    function addSignersToDocument(string _hash, address[] _signers) internal {\n        uint arrayLength = _signers.length;\n        \n        for (uint i = 0; i < arrayLength; i++) {\n            address signerAddress = _signers[i];\n\n            documents[_hash].signers[signerAddress]._address = signerAddress;\n        }\n    }\n\n    function getDocumentSigners(string _hash) view public returns (address[]) {\n        return documents[_hash]._signers;\n    }\n\n    function getSignerEmail(string _hash, address _signer) view public returns (string) {\n        return documents[_hash].signers[_signer].email;\n    }\n\n    function getSignerName(string _hash, address _signer) view public returns (string) {\n        return documents[_hash].signers[_signer].name;\n    }\n\n    function getSignerTimestamp(string _hash, address _signer) view public returns (uint256) {\n        return documents[_hash].signers[_signer].timestamp;\n    }\n\n    function getDocumentId(string _hash) view public returns (string) {\n        return documents[_hash].hash;\n    }\n\n    function getDocumentCreator(string _hash) view public returns (address) {\n        return documents[_hash].creator;\n    }\n\n    function getDocumentExpirationDate(string _hash) view public returns (uint256) {\n        return documents[_hash].expirationDate;\n    }\n    \n}\n\n\n\n\n\n\n\n\n\n\n",
  "sourcePath": "/Users/GustavoIbarra/Projects/Solidity/cansign-v1/contracts/CANSign.v1.sol",
  "compiler": {
    "name": "solc",
    "version": "0.4.19+commit.c4cbbb05.Emscripten.clang"
  },
  "schemaVersion": "2.0.0",
  "updatedAt": "2018-05-02T19:16:23.428Z"
}