{
  "contractName": "CANSign",
  "abi": [
    {
      "anonymous": false,
      "inputs": [
        {
          "indexed": false,
          "name": "_hash",
          "type": "string"
        },
        {
          "indexed": false,
          "name": "_signer",
          "type": "address"
        }
      ],
      "name": "OnInvalidSigner",
      "type": "event"
    },
    {
      "anonymous": false,
      "inputs": [
        {
          "indexed": false,
          "name": "_hash",
          "type": "string"
        },
        {
          "indexed": false,
          "name": "_timestamp",
          "type": "uint256"
        }
      ],
      "name": "OnAddDocument",
      "type": "event"
    },
    {
      "anonymous": false,
      "inputs": [
        {
          "indexed": false,
          "name": "_hash",
          "type": "string"
        },
        {
          "indexed": false,
          "name": "_signer",
          "type": "address"
        },
        {
          "indexed": false,
          "name": "_timestamp",
          "type": "uint256"
        }
      ],
      "name": "OnSignDocument",
      "type": "event"
    },
    {
      "constant": false,
      "inputs": [
        {
          "name": "_hash",
          "type": "string"
        },
        {
          "name": "_signers",
          "type": "address[]"
        }
      ],
      "name": "addDocument",
      "outputs": [],
      "payable": false,
      "stateMutability": "nonpayable",
      "type": "function"
    },
    {
      "constant": false,
      "inputs": [
        {
          "name": "_hash",
          "type": "string"
        }
      ],
      "name": "sign",
      "outputs": [
        {
          "name": "",
          "type": "bool"
        }
      ],
      "payable": false,
      "stateMutability": "nonpayable",
      "type": "function"
    },
    {
      "constant": true,
      "inputs": [
        {
          "name": "_hash",
          "type": "string"
        }
      ],
      "name": "getDocumentSigners",
      "outputs": [
        {
          "name": "",
          "type": "address[]"
        }
      ],
      "payable": false,
      "stateMutability": "view",
      "type": "function"
    },
    {
      "constant": true,
      "inputs": [
        {
          "name": "_hash",
          "type": "string"
        }
      ],
      "name": "getDocumentId",
      "outputs": [
        {
          "name": "",
          "type": "string"
        }
      ],
      "payable": false,
      "stateMutability": "view",
      "type": "function"
    },
    {
      "constant": true,
      "inputs": [
        {
          "name": "_hash",
          "type": "string"
        }
      ],
      "name": "getDocumentCreator",
      "outputs": [
        {
          "name": "",
          "type": "address"
        }
      ],
      "payable": false,
      "stateMutability": "view",
      "type": "function"
    },
    {
      "constant": true,
      "inputs": [
        {
          "name": "_hash",
          "type": "string"
        }
      ],
      "name": "getDocumentTimestamp",
      "outputs": [
        {
          "name": "",
          "type": "uint256"
        }
      ],
      "payable": false,
      "stateMutability": "view",
      "type": "function"
    },
    {
      "constant": true,
      "inputs": [
        {
          "name": "_hash",
          "type": "string"
        },
        {
          "name": "_signer",
          "type": "address"
        }
      ],
      "name": "getSignerEmail",
      "outputs": [
        {
          "name": "",
          "type": "string"
        }
      ],
      "payable": false,
      "stateMutability": "view",
      "type": "function"
    },
    {
      "constant": true,
      "inputs": [
        {
          "name": "_hash",
          "type": "string"
        },
        {
          "name": "_signer",
          "type": "address"
        }
      ],
      "name": "getSignerName",
      "outputs": [
        {
          "name": "",
          "type": "string"
        }
      ],
      "payable": false,
      "stateMutability": "view",
      "type": "function"
    },
    {
      "constant": true,
      "inputs": [
        {
          "name": "_hash",
          "type": "string"
        },
        {
          "name": "_signer",
          "type": "address"
        }
      ],
      "name": "getSignerStatus",
      "outputs": [
        {
          "name": "",
          "type": "string"
        }
      ],
      "payable": false,
      "stateMutability": "view",
      "type": "function"
    },
    {
      "constant": true,
      "inputs": [
        {
          "name": "_hash",
          "type": "string"
        },
        {
          "name": "_signer",
          "type": "address"
        }
      ],
      "name": "getSignerTimestamp",
      "outputs": [
        {
          "name": "",
          "type": "uint256"
        }
      ],
      "payable": false,
      "stateMutability": "view",
      "type": "function"
    },
    {
      "constant": true,
      "inputs": [
        {
          "name": "_hash",
          "type": "string"
        },
        {
          "name": "_signer",
          "type": "address"
        }
      ],
      "name": "getSignerBlockNumber",
      "outputs": [
        {
          "name": "",
          "type": "uint256"
        }
      ],
      "payable": false,
      "stateMutability": "view",
      "type": "function"
    }
  ],
  "bytecode": "0x608060405234801561001057600080fd5b50611efc806100206000396000f3006080604052600436106100af576000357c0100000000000000000000000000000000000000000000000000000000900463ffffffff1680630d3873ba146100b45780631782f532146101b657806364ad3a45146102b85780636cddd91214610355578063791b63ab1461040157806379d6348d146104e3578063af38930714610564578063c2818fe1146105e1578063c7d599ae1461067e578063d2c0448014610727578063ea4d3a4014610829575b600080fd5b3480156100c057600080fd5b5061013b600480360381019080803590602001908201803590602001908080601f0160208091040260200160405190810160405280939291908181526020018383808284378201915050505050509192919290803573ffffffffffffffffffffffffffffffffffffffff1690602001909291905050506108e7565b6040518080602001828103825283818151815260200191508051906020019080838360005b8381101561017b578082015181840152602081019050610160565b50505050905090810190601f1680156101a85780820380516001836020036101000a031916815260200191505b509250505060405180910390f35b3480156101c257600080fd5b5061023d600480360381019080803590602001908201803590602001908080601f0160208091040260200160405190810160405280939291908181526020018383808284378201915050505050509192919290803573ffffffffffffffffffffffffffffffffffffffff169060200190929190505050610a38565b6040518080602001828103825283818151815260200191508051906020019080838360005b8381101561027d578082015181840152602081019050610262565b50505050905090810190601f1680156102aa5780820380516001836020036101000a031916815260200191505b509250505060405180910390f35b3480156102c457600080fd5b5061033f600480360381019080803590602001908201803590602001908080601f0160208091040260200160405190810160405280939291908181526020018383808284378201915050505050509192919290803573ffffffffffffffffffffffffffffffffffffffff169060200190929190505050610b89565b6040518082815260200191505060405180910390f35b34801561036157600080fd5b506103ff600480360381019080803590602001908201803590602001908080601f016020809104026020016040519081016040528093929190818152602001838380828437820191505050505050919291929080359060200190820180359060200190808060200260200160405190810160405280939291908181526020018383602002808284378201915050505050509192919290505050610c41565b005b34801561040d57600080fd5b50610468600480360381019080803590602001908201803590602001908080601f0160208091040260200160405190810160405280939291908181526020018383808284378201915050505050509192919290505050610f92565b6040518080602001828103825283818151815260200191508051906020019080838360005b838110156104a857808201518184015260208101905061048d565b50505050905090810190601f1680156104d55780820380516001836020036101000a031916815260200191505b509250505060405180910390f35b3480156104ef57600080fd5b5061054a600480360381019080803590602001908201803590602001908080601f01602080910402602001604051908101604052809392919081815260200183838082843782019150505050505091929192905050506110a2565b604051808215151515815260200191505060405180910390f35b34801561057057600080fd5b506105cb600480360381019080803590602001908201803590602001908080601f016020809104026020016040519081016040528093929190818152602001838380828437820191505050505050919291929050505061139b565b6040518082815260200191505060405180910390f35b3480156105ed57600080fd5b50610668600480360381019080803590602001908201803590602001908080601f0160208091040260200160405190810160405280939291908181526020018383808284378201915050505050509192919290803573ffffffffffffffffffffffffffffffffffffffff169060200190929190505050611412565b6040518082815260200191505060405180910390f35b34801561068a57600080fd5b506106e5600480360381019080803590602001908201803590602001908080601f01602080910402602001604051908101604052809392919081815260200183838082843782019150505050505091929192905050506114ca565b604051808273ffffffffffffffffffffffffffffffffffffffff1673ffffffffffffffffffffffffffffffffffffffff16815260200191505060405180910390f35b34801561073357600080fd5b506107ae600480360381019080803590602001908201803590602001908080601f0160208091040260200160405190810160405280939291908181526020018383808284378201915050505050509192919290803573ffffffffffffffffffffffffffffffffffffffff169060200190929190505050611561565b6040518080602001828103825283818151815260200191508051906020019080838360005b838110156107ee5780820151818401526020810190506107d3565b50505050905090810190601f16801561081b5780820380516001836020036101000a031916815260200191505b509250505060405180910390f35b34801561083557600080fd5b50610890600480360381019080803590602001908201803590602001908080601f01602080910402602001604051908101604052809392919081815260200183838082843782019150505050505091929192905050506116b2565b6040518080602001828103825283818151815260200191508051906020019060200280838360005b838110156108d35780820151818401526020810190506108b8565b505050509050019250505060405180910390f35b60606000836040518082805190602001908083835b60208310151561092157805182526020820191506020810190506020830392506108fc565b6001836020036101000a038019825116818451168082178552505050505050905001915050908152602001604051809103902060040160008373ffffffffffffffffffffffffffffffffffffffff1673ffffffffffffffffffffffffffffffffffffffff1681526020019081526020016000206004018054600181600116156101000203166002900480601f016020809104026020016040519081016040528092919081815260200182805460018160011615610100020316600290048015610a2b5780601f10610a0057610100808354040283529160200191610a2b565b820191906000526020600020905b815481529060010190602001808311610a0e57829003601f168201915b5050505050905092915050565b60606000836040518082805190602001908083835b602083101515610a725780518252602082019150602081019050602083039250610a4d565b6001836020036101000a038019825116818451168082178552505050505050905001915050908152602001604051809103902060040160008373ffffffffffffffffffffffffffffffffffffffff1673ffffffffffffffffffffffffffffffffffffffff1681526020019081526020016000206005018054600181600116156101000203166002900480601f016020809104026020016040519081016040528092919081815260200182805460018160011615610100020316600290048015610b7c5780601f10610b5157610100808354040283529160200191610b7c565b820191906000526020600020905b815481529060010190602001808311610b5f57829003601f168201915b5050505050905092915050565b600080836040518082805190602001908083835b602083101515610bc25780518252602082019150602081019050602083039250610b9d565b6001836020036101000a038019825116818451168082178552505050505050905001915050908152602001604051809103902060040160008373ffffffffffffffffffffffffffffffffffffffff1673ffffffffffffffffffffffffffffffffffffffff16815260200190815260200160002060010154905092915050565b610c4a826117ae565b151515610c5657600080fd5b816000836040518082805190602001908083835b602083101515610c8f5780518252602082019150602081019050602083039250610c6a565b6001836020036101000a03801982511681845116808217855250505050505090500191505090815260200160405180910390206000019080519060200190610cd8929190611c4b565b50336000836040518082805190602001908083835b602083101515610d125780518252602082019150602081019050602083039250610ced565b6001836020036101000a038019825116818451168082178552505050505050905001915050908152602001604051809103902060010160006101000a81548173ffffffffffffffffffffffffffffffffffffffff021916908373ffffffffffffffffffffffffffffffffffffffff160217905550426000836040518082805190602001908083835b602083101515610dbf5780518252602082019150602081019050602083039250610d9a565b6001836020036101000a038019825116818451168082178552505050505050905001915050908152602001604051809103902060020181905550806000836040518082805190602001908083835b602083101515610e325780518252602082019150602081019050602083039250610e0d565b6001836020036101000a03801982511681845116808217855250505050505090500191505090815260200160405180910390206003019080519060200190610e7b929190611ccb565b507f581254e18ea3a256a33303adfe5e7add36595b11cefa154233b82f1cbc765dfa826000846040518082805190602001908083835b602083101515610ed65780518252602082019150602081019050602083039250610eb1565b6001836020036101000a0380198251168184511680821785525050505050509050019150509081526020016040518091039020600201546040518080602001838152602001828103825284818151815260200191508051906020019080838360005b83811015610f53578082015181840152602081019050610f38565b50505050905090810190601f168015610f805780820380516001836020036101000a031916815260200191505b50935050505060405180910390a15050565b60606000826040518082805190602001908083835b602083101515610fcc5780518252602082019150602081019050602083039250610fa7565b6001836020036101000a03801982511681845116808217855250505050505090500191505090815260200160405180910390206000018054600181600116156101000203166002900480601f0160208091040260200160405190810160405280929190818152602001828054600181600116156101000203166002900480156110965780601f1061106b57610100808354040283529160200191611096565b820191906000526020600020905b81548152906001019060200180831161107957829003601f168201915b50505050509050919050565b60006110ac611d55565b6110b5836118d7565b15156110c057600080fd5b42816020018181525050438160400181815250506040805190810160405280600681526020017f7369676e65640000000000000000000000000000000000000000000000000000815250816080018190525033816000019073ffffffffffffffffffffffffffffffffffffffff16908173ffffffffffffffffffffffffffffffffffffffff1681525050806000846040518082805190602001908083835b602083101515611183578051825260208201915060208101905060208303925061115e565b6001836020036101000a038019825116818451168082178552505050505050905001915050908152602001604051809103902060040160003373ffffffffffffffffffffffffffffffffffffffff1673ffffffffffffffffffffffffffffffffffffffff16815260200190815260200160002060008201518160000160006101000a81548173ffffffffffffffffffffffffffffffffffffffff021916908373ffffffffffffffffffffffffffffffffffffffff1602179055506020820151816001015560408201518160020155606082015181600301556080820151816004019080519060200190611277929190611da9565b5060a0820151816005019080519060200190611294929190611da9565b5060c08201518160060190805190602001906112b1929190611da9565b509050507f6b672d600cf2dcc8e33bc7a267355d94b4c3a573fb8112bd61dbb863dd808aef8333836020015160405180806020018473ffffffffffffffffffffffffffffffffffffffff1673ffffffffffffffffffffffffffffffffffffffff168152602001838152602001828103825285818151815260200191508051906020019080838360005b8381101561135557808201518184015260208101905061133a565b50505050905090810190601f1680156113825780820380516001836020036101000a031916815260200191505b5094505050505060405180910390a16001915050919050565b600080826040518082805190602001908083835b6020831015156113d457805182526020820191506020810190506020830392506113af565b6001836020036101000a0380198251168184511680821785525050505050509050019150509081526020016040518091039020600201549050919050565b600080836040518082805190602001908083835b60208310151561144b5780518252602082019150602081019050602083039250611426565b6001836020036101000a038019825116818451168082178552505050505050905001915050908152602001604051809103902060040160008373ffffffffffffffffffffffffffffffffffffffff1673ffffffffffffffffffffffffffffffffffffffff16815260200190815260200160002060020154905092915050565b600080826040518082805190602001908083835b60208310151561150357805182526020820191506020810190506020830392506114de565b6001836020036101000a038019825116818451168082178552505050505050905001915050908152602001604051809103902060010160009054906101000a900473ffffffffffffffffffffffffffffffffffffffff169050919050565b60606000836040518082805190602001908083835b60208310151561159b5780518252602082019150602081019050602083039250611576565b6001836020036101000a038019825116818451168082178552505050505050905001915050908152602001604051809103902060040160008373ffffffffffffffffffffffffffffffffffffffff1673ffffffffffffffffffffffffffffffffffffffff1681526020019081526020016000206006018054600181600116156101000203166002900480601f0160208091040260200160405190810160405280929190818152602001828054600181600116156101000203166002900480156116a55780601f1061167a576101008083540402835291602001916116a5565b820191906000526020600020905b81548152906001019060200180831161168857829003601f168201915b5050505050905092915050565b60606000826040518082805190602001908083835b6020831015156116ec57805182526020820191506020810190506020830392506116c7565b6001836020036101000a03801982511681845116808217855250505050505090500191505090815260200160405180910390206003018054806020026020016040519081016040528092919081815260200182805480156117a257602002820191906000526020600020905b8160009054906101000a900473ffffffffffffffffffffffffffffffffffffffff1673ffffffffffffffffffffffffffffffffffffffff1681526020019060010190808311611758575b50505050509050919050565b600060606000836040518082805190602001908083835b6020831015156117ea57805182526020820191506020810190506020830392506117c5565b6001836020036101000a03801982511681845116808217855250505050505090500191505090815260200160405180910390206000018054600181600116156101000203166002900480601f0160208091040260200160405190810160405280929190818152602001828054600181600116156101000203166002900480156118b45780601f10611889576101008083540402835291602001916118b4565b820191906000526020600020905b81548152906001019060200180831161189757829003601f168201915b505050505090506000815114156118cc5760006118cf565b60015b915050919050565b60006118e1611e29565b6060600080600080876040518082805190602001908083835b60208310151561191f57805182526020820191506020810190506020830392506118fa565b6001836020036101000a038019825116818451168082178552505050505050905001915050908152602001604051809103902060806040519081016040529081600082018054600181600116156101000203166002900480601f0160208091040260200160405190810160405280929190818152602001828054600181600116156101000203166002900480156119f75780601f106119cc576101008083540402835291602001916119f7565b820191906000526020600020905b8154815290600101906020018083116119da57829003601f168201915b505050505081526020016001820160009054906101000a900473ffffffffffffffffffffffffffffffffffffffff1673ffffffffffffffffffffffffffffffffffffffff1673ffffffffffffffffffffffffffffffffffffffff1681526020016002820154815260200160038201805480602002602001604051908101604052809291908181526020018280548015611ae557602002820191906000526020600020905b8160009054906101000a900473ffffffffffffffffffffffffffffffffffffffff1673ffffffffffffffffffffffffffffffffffffffff1681526020019060010190808311611a9b575b50505050508152505094508460600151935083519250600091505b82821015611b6c578382815181101515611b1657fe5b9060200190602002015190503373ffffffffffffffffffffffffffffffffffffffff168173ffffffffffffffffffffffffffffffffffffffff161415611b5f5760019550611c41565b8180600101925050611b00565b7fd8e66de20ffd90fd8621e5ce1234489c159cc8e5f2604e33c25de88fb6b574d1873360405180806020018373ffffffffffffffffffffffffffffffffffffffff1673ffffffffffffffffffffffffffffffffffffffff168152602001828103825284818151815260200191508051906020019080838360005b83811015611c01578082015181840152602081019050611be6565b50505050905090810190601f168015611c2e5780820380516001836020036101000a031916815260200191505b50935050505060405180910390a1600095505b5050505050919050565b828054600181600116156101000203166002900490600052602060002090601f016020900481019282601f10611c8c57805160ff1916838001178555611cba565b82800160010185558215611cba579182015b82811115611cb9578251825591602001919060010190611c9e565b5b509050611cc79190611e68565b5090565b828054828255906000526020600020908101928215611d44579160200282015b82811115611d435782518260006101000a81548173ffffffffffffffffffffffffffffffffffffffff021916908373ffffffffffffffffffffffffffffffffffffffff16021790555091602001919060010190611ceb565b5b509050611d519190611e8d565b5090565b60e060405190810160405280600073ffffffffffffffffffffffffffffffffffffffff1681526020016000815260200160008152602001600081526020016060815260200160608152602001606081525090565b828054600181600116156101000203166002900490600052602060002090601f016020900481019282601f10611dea57805160ff1916838001178555611e18565b82800160010185558215611e18579182015b82811115611e17578251825591602001919060010190611dfc565b5b509050611e259190611e68565b5090565b60806040519081016040528060608152602001600073ffffffffffffffffffffffffffffffffffffffff16815260200160008152602001606081525090565b611e8a91905b80821115611e86576000816000905550600101611e6e565b5090565b90565b611ecd91905b80821115611ec957600081816101000a81549073ffffffffffffffffffffffffffffffffffffffff021916905550600101611e93565b5090565b905600a165627a7a723058205c7d3fb8815620a990a8a50eee84ceee769176fa357bcd2671503a7d510251230029",
  "source": "pragma solidity ^0.4.21;\n\ncontract CANSign {\n    \n    struct Signer {\n        address _address;\n        uint256 timestamp;\n        uint256 blockNumber;\n        uint256 dateOfBirth;\n        string status;\n        string name;\n        string email;\n    }\n    \n    struct Document {\n        string hash;\n        address creator;\n        uint256 timestamp;\n        address[] _signers;\n        mapping (address => Signer) signers;\n    }\n    \n    mapping (string => Document) documents;\n\n\n    event OnInvalidSigner(string _hash, address _signer);\n    event OnAddDocument(string _hash, uint256 _timestamp);\n    event OnSignDocument(string _hash, address _signer, uint256 _timestamp);\n\n\n    function _signerExists(string _hash) internal returns (bool) {\n        Document memory document = documents[_hash];\n\n        address[] memory _signers = document._signers;\n\n        uint arrayLength = _signers.length;\n        \n        for (uint i = 0; i < arrayLength; i++) {\n            address signerAddress = _signers[i];\n\n            if (signerAddress == msg.sender) {\n                return true;\n            }\n        }\n\n        emit OnInvalidSigner(_hash, msg.sender);\n        return false;\n    }\n\n    function _documentExists(string _hash) view internal returns (bool) {\n        bytes memory tempEmptyStringTest = bytes(documents[_hash].hash);\n\n        return (tempEmptyStringTest.length != 0) ? true : false;\n    }\n\n    function addDocument(\n        string _hash, \n        address[] _signers) public {\n\n        require(!_documentExists(_hash));\n\n        documents[_hash].hash = _hash;\n        documents[_hash].creator = msg.sender;\n        documents[_hash].timestamp = block.timestamp;\n        documents[_hash]._signers = _signers;\n\n        emit OnAddDocument(_hash, documents[_hash].timestamp);\n    }\n\n    function sign(string _hash) public returns (bool) {\n        require(_signerExists(_hash));\n\n        Signer memory signer;\n\n        signer.timestamp = block.timestamp;\n\n        signer.blockNumber = block.number;\n\n        signer.status = 'signed';\n\n        signer._address = msg.sender;\n\n        documents[_hash].signers[msg.sender] = signer;\n\n        emit OnSignDocument(_hash, msg.sender, signer.timestamp);\n\n        return true;\n    }\n\n    function getDocumentSigners(string _hash) view public returns (address[]) {\n        return documents[_hash]._signers;\n    }\n\n    function getDocumentId(string _hash) view public returns (string) {\n        return documents[_hash].hash;\n    }\n\n    function getDocumentCreator(string _hash) view public returns (address) {\n        return documents[_hash].creator;\n    }\n\n    function getDocumentTimestamp(string _hash) view public returns (uint256) {\n        return documents[_hash].timestamp;\n    }\n\n    function getSignerEmail(string _hash, address _signer) view public returns (string) {\n        return documents[_hash].signers[_signer].email;\n    }\n\n    function getSignerName(string _hash, address _signer) view public returns (string) {\n        return documents[_hash].signers[_signer].name;\n    }\n\n    function getSignerStatus(string _hash, address _signer) view public returns (string) {\n        return documents[_hash].signers[_signer].status;\n    }\n\n    function getSignerTimestamp(string _hash, address _signer) view public returns (uint256) {\n        return documents[_hash].signers[_signer].timestamp;\n    }\n\n    function getSignerBlockNumber(string _hash, address _signer) view public returns (uint256) {\n        return documents[_hash].signers[_signer].blockNumber;\n    }\n}\n",
  "sourcePath": "/Users/GustavoIbarra/Projects/Solidity/cansign-v1/contracts/CANSign.sol",
  "compiler": {
    "name": "solc",
    "version": "0.4.24+commit.e67f0147.Emscripten.clang"
  },
  "schemaVersion": "2.0.0",
  "updatedAt": "2018-06-10T22:00:42.913Z"
}