{
  "contractName": "CANSign",
  "abi": [
    {
      "inputs": [],
      "payable": false,
      "stateMutability": "nonpayable",
      "type": "constructor"
    },
    {
      "constant": false,
      "inputs": [
        {
          "name": "_hash",
          "type": "string"
        },
        {
          "name": "_name",
          "type": "string"
        },
        {
          "name": "_lastModified",
          "type": "uint256"
        },
        {
          "name": "_uploadedAt",
          "type": "uint256"
        },
        {
          "name": "_expirationDate",
          "type": "uint256"
        },
        {
          "name": "_signers",
          "type": "address[]"
        }
      ],
      "name": "addDocument",
      "outputs": [],
      "payable": false,
      "stateMutability": "nonpayable",
      "type": "function"
    },
    {
      "constant": false,
      "inputs": [
        {
          "name": "_hash",
          "type": "string"
        },
        {
          "name": "_timestamp",
          "type": "uint256"
        },
        {
          "name": "_email",
          "type": "string"
        }
      ],
      "name": "sign",
      "outputs": [],
      "payable": false,
      "stateMutability": "nonpayable",
      "type": "function"
    },
    {
      "constant": true,
      "inputs": [
        {
          "name": "_hash",
          "type": "string"
        }
      ],
      "name": "getDocumentSigners",
      "outputs": [
        {
          "name": "",
          "type": "address[]"
        }
      ],
      "payable": false,
      "stateMutability": "view",
      "type": "function"
    },
    {
      "constant": true,
      "inputs": [
        {
          "name": "_hash",
          "type": "string"
        }
      ],
      "name": "getDocumentId",
      "outputs": [
        {
          "name": "",
          "type": "string"
        }
      ],
      "payable": false,
      "stateMutability": "view",
      "type": "function"
    },
    {
      "constant": true,
      "inputs": [
        {
          "name": "_hash",
          "type": "string"
        }
      ],
      "name": "getDocumentCreator",
      "outputs": [
        {
          "name": "",
          "type": "address"
        }
      ],
      "payable": false,
      "stateMutability": "view",
      "type": "function"
    },
    {
      "constant": true,
      "inputs": [
        {
          "name": "_hash",
          "type": "string"
        }
      ],
      "name": "getDocumentName",
      "outputs": [
        {
          "name": "",
          "type": "string"
        }
      ],
      "payable": false,
      "stateMutability": "view",
      "type": "function"
    },
    {
      "constant": true,
      "inputs": [
        {
          "name": "_hash",
          "type": "string"
        }
      ],
      "name": "getDocumentExpirationDate",
      "outputs": [
        {
          "name": "",
          "type": "uint256"
        }
      ],
      "payable": false,
      "stateMutability": "view",
      "type": "function"
    },
    {
      "constant": true,
      "inputs": [
        {
          "name": "_hash",
          "type": "string"
        }
      ],
      "name": "getDocumentLastModifiedDate",
      "outputs": [
        {
          "name": "",
          "type": "uint256"
        }
      ],
      "payable": false,
      "stateMutability": "view",
      "type": "function"
    },
    {
      "constant": true,
      "inputs": [
        {
          "name": "_hash",
          "type": "string"
        }
      ],
      "name": "getDocumentUploadedAtDate",
      "outputs": [
        {
          "name": "",
          "type": "uint256"
        }
      ],
      "payable": false,
      "stateMutability": "view",
      "type": "function"
    },
    {
      "constant": true,
      "inputs": [
        {
          "name": "_hash",
          "type": "string"
        },
        {
          "name": "_signer",
          "type": "address"
        }
      ],
      "name": "getSignerEmail",
      "outputs": [
        {
          "name": "",
          "type": "string"
        }
      ],
      "payable": false,
      "stateMutability": "view",
      "type": "function"
    },
    {
      "constant": true,
      "inputs": [
        {
          "name": "_hash",
          "type": "string"
        },
        {
          "name": "_signer",
          "type": "address"
        }
      ],
      "name": "getSignerName",
      "outputs": [
        {
          "name": "",
          "type": "string"
        }
      ],
      "payable": false,
      "stateMutability": "view",
      "type": "function"
    },
    {
      "constant": true,
      "inputs": [
        {
          "name": "_hash",
          "type": "string"
        },
        {
          "name": "_signer",
          "type": "address"
        }
      ],
      "name": "getSignerStatus",
      "outputs": [
        {
          "name": "",
          "type": "string"
        }
      ],
      "payable": false,
      "stateMutability": "view",
      "type": "function"
    },
    {
      "constant": true,
      "inputs": [
        {
          "name": "_hash",
          "type": "string"
        },
        {
          "name": "_signer",
          "type": "address"
        }
      ],
      "name": "getSignerTimestamp",
      "outputs": [
        {
          "name": "",
          "type": "uint256"
        }
      ],
      "payable": false,
      "stateMutability": "view",
      "type": "function"
    }
  ],
  "bytecode": "0x6060604052341561000f57600080fd5b611cc68061001e6000396000f3006060604052600436106100c5576000357c0100000000000000000000000000000000000000000000000000000000900463ffffffff1680630d3873ba146100ca5780631782f532146101bf5780632e77a4e5146102b457806364ad3a45146103255780636971552c146103b5578063791b63ab146104b05780637bfbd37c14610586578063a2ddebb51461065c578063b0cd7dab14610705578063c7d599ae14610776578063d2c0448014610813578063d615d31014610908578063ea4d3a4014610979575b600080fd5b34156100d557600080fd5b610144600480803590602001908201803590602001908080601f0160208091040260200160405190810160405280939291908181526020018383808284378201915050505050509190803573ffffffffffffffffffffffffffffffffffffffff16906020019091905050610a2b565b6040518080602001828103825283818151815260200191508051906020019080838360005b83811015610184578082015181840152602081019050610169565b50505050905090810190601f1680156101b15780820380516001836020036101000a031916815260200191505b509250505060405180910390f35b34156101ca57600080fd5b610239600480803590602001908201803590602001908080601f0160208091040260200160405190810160405280939291908181526020018383808284378201915050505050509190803573ffffffffffffffffffffffffffffffffffffffff16906020019091905050610b82565b6040518080602001828103825283818151815260200191508051906020019080838360005b8381101561027957808201518184015260208101905061025e565b50505050905090810190601f1680156102a65780820380516001836020036101000a031916815260200191505b509250505060405180910390f35b34156102bf57600080fd5b61030f600480803590602001908201803590602001908080601f01602080910402602001604051908101604052809392919081815260200183838082843782019150505050505091905050610cd9565b6040518082815260200191505060405180910390f35b341561033057600080fd5b61039f600480803590602001908201803590602001908080601f0160208091040260200160405190810160405280939291908181526020018383808284378201915050505050509190803573ffffffffffffffffffffffffffffffffffffffff16906020019091905050610d50565b6040518082815260200191505060405180910390f35b34156103c057600080fd5b6104ae600480803590602001908201803590602001908080601f0160208091040260200160405190810160405280939291908181526020018383808284378201915050505050509190803590602001908201803590602001908080601f0160208091040260200160405190810160405280939291908181526020018383808284378201915050505050509190803590602001909190803590602001909190803590602001909190803590602001908201803590602001908080602002602001604051908101604052809392919081815260200183836020028082843782019150505050505091905050610e08565b005b34156104bb57600080fd5b61050b600480803590602001908201803590602001908080601f016020809104026020016040519081016040528093929190818152602001838380828437820191505050505050919050506111a9565b6040518080602001828103825283818151815260200191508051906020019080838360005b8381101561054b578082015181840152602081019050610530565b50505050905090810190601f1680156105785780820380516001836020036101000a031916815260200191505b509250505060405180910390f35b341561059157600080fd5b6105e1600480803590602001908201803590602001908080601f016020809104026020016040519081016040528093929190818152602001838380828437820191505050505050919050506112bf565b6040518080602001828103825283818151815260200191508051906020019080838360005b83811015610621578082015181840152602081019050610606565b50505050905090810190601f16801561064e5780820380516001836020036101000a031916815260200191505b509250505060405180910390f35b341561066757600080fd5b610703600480803590602001908201803590602001908080601f0160208091040260200160405190810160405280939291908181526020018383808284378201915050505050509190803590602001909190803590602001908201803590602001908080601f016020809104026020016040519081016040528093929190818152602001838380828437820191505050505050919050506113d5565b005b341561071057600080fd5b610760600480803590602001908201803590602001908080601f016020809104026020016040519081016040528093929190818152602001838380828437820191505050505050919050506114f9565b6040518082815260200191505060405180910390f35b341561078157600080fd5b6107d1600480803590602001908201803590602001908080601f01602080910402602001604051908101604052809392919081815260200183838082843782019150505050505091905050611570565b604051808273ffffffffffffffffffffffffffffffffffffffff1673ffffffffffffffffffffffffffffffffffffffff16815260200191505060405180910390f35b341561081e57600080fd5b61088d600480803590602001908201803590602001908080601f0160208091040260200160405190810160405280939291908181526020018383808284378201915050505050509190803573ffffffffffffffffffffffffffffffffffffffff16906020019091905050611607565b6040518080602001828103825283818151815260200191508051906020019080838360005b838110156108cd5780820151818401526020810190506108b2565b50505050905090810190601f1680156108fa5780820380516001836020036101000a031916815260200191505b509250505060405180910390f35b341561091357600080fd5b610963600480803590602001908201803590602001908080601f0160208091040260200160405190810160405280939291908181526020018383808284378201915050505050509190505061175e565b6040518082815260200191505060405180910390f35b341561098457600080fd5b6109d4600480803590602001908201803590602001908080601f016020809104026020016040519081016040528093929190818152602001838380828437820191505050505050919050506117d5565b6040518080602001828103825283818151815260200191508051906020019060200280838360005b83811015610a175780820151818401526020810190506109fc565b505050509050019250505060405180910390f35b610a33611b00565b6000836040518082805190602001908083835b602083101515610a6b5780518252602082019150602081019050602083039250610a46565b6001836020036101000a038019825116818451168082178552505050505050905001915050908152602001604051809103902060070160008373ffffffffffffffffffffffffffffffffffffffff1673ffffffffffffffffffffffffffffffffffffffff1681526020019081526020016000206003018054600181600116156101000203166002900480601f016020809104026020016040519081016040528092919081815260200182805460018160011615610100020316600290048015610b755780601f10610b4a57610100808354040283529160200191610b75565b820191906000526020600020905b815481529060010190602001808311610b5857829003601f168201915b5050505050905092915050565b610b8a611b00565b6000836040518082805190602001908083835b602083101515610bc25780518252602082019150602081019050602083039250610b9d565b6001836020036101000a038019825116818451168082178552505050505050905001915050908152602001604051809103902060070160008373ffffffffffffffffffffffffffffffffffffffff1673ffffffffffffffffffffffffffffffffffffffff1681526020019081526020016000206004018054600181600116156101000203166002900480601f016020809104026020016040519081016040528092919081815260200182805460018160011615610100020316600290048015610ccc5780601f10610ca157610100808354040283529160200191610ccc565b820191906000526020600020905b815481529060010190602001808311610caf57829003601f168201915b5050505050905092915050565b600080826040518082805190602001908083835b602083101515610d125780518252602082019150602081019050602083039250610ced565b6001836020036101000a0380198251168184511680821785525050505050509050019150509081526020016040518091039020600401549050919050565b600080836040518082805190602001908083835b602083101515610d895780518252602082019150602081019050602083039250610d64565b6001836020036101000a038019825116818451168082178552505050505050905001915050908152602001604051809103902060070160008373ffffffffffffffffffffffffffffffffffffffff1673ffffffffffffffffffffffffffffffffffffffff16815260200190815260200160002060010154905092915050565b856000876040518082805190602001908083835b602083101515610e415780518252602082019150602081019050602083039250610e1c565b6001836020036101000a03801982511681845116808217855250505050505090500191505090815260200160405180910390206000019080519060200190610e8a929190611b14565b50336000876040518082805190602001908083835b602083101515610ec45780518252602082019150602081019050602083039250610e9f565b6001836020036101000a038019825116818451168082178552505050505050905001915050908152602001604051809103902060010160006101000a81548173ffffffffffffffffffffffffffffffffffffffff021916908373ffffffffffffffffffffffffffffffffffffffff160217905550846000876040518082805190602001908083835b602083101515610f715780518252602082019150602081019050602083039250610f4c565b6001836020036101000a03801982511681845116808217855250505050505090500191505090815260200160405180910390206002019080519060200190610fba929190611b14565b50836000876040518082805190602001908083835b602083101515610ff45780518252602082019150602081019050602083039250610fcf565b6001836020036101000a038019825116818451168082178552505050505050905001915050908152602001604051809103902060030181905550826000876040518082805190602001908083835b6020831015156110675780518252602082019150602081019050602083039250611042565b6001836020036101000a038019825116818451168082178552505050505050905001915050908152602001604051809103902060040181905550816000876040518082805190602001908083835b6020831015156110da57805182526020820191506020810190506020830392506110b5565b6001836020036101000a038019825116818451168082178552505050505050905001915050908152602001604051809103902060050181905550806000876040518082805190602001908083835b60208310151561114d5780518252602082019150602081019050602083039250611128565b6001836020036101000a03801982511681845116808217855250505050505090500191505090815260200160405180910390206006019080519060200190611196929190611b94565b506111a186826118d7565b505050505050565b6111b1611b00565b6000826040518082805190602001908083835b6020831015156111e957805182526020820191506020810190506020830392506111c4565b6001836020036101000a03801982511681845116808217855250505050505090500191505090815260200160405180910390206000018054600181600116156101000203166002900480601f0160208091040260200160405190810160405280929190818152602001828054600181600116156101000203166002900480156112b35780601f10611288576101008083540402835291602001916112b3565b820191906000526020600020905b81548152906001019060200180831161129657829003601f168201915b50505050509050919050565b6112c7611b00565b6000826040518082805190602001908083835b6020831015156112ff57805182526020820191506020810190506020830392506112da565b6001836020036101000a03801982511681845116808217855250505050505090500191505090815260200160405180910390206002018054600181600116156101000203166002900480601f0160208091040260200160405190810160405280929190818152602001828054600181600116156101000203166002900480156113c95780601f1061139e576101008083540402835291602001916113c9565b820191906000526020600020905b8154815290600101906020018083116113ac57829003601f168201915b50505050509050919050565b600080846040518082805190602001908083835b60208310151561140e57805182526020820191506020810190506020830392506113e9565b6001836020036101000a038019825116818451168082178552505050505050905001915050908152602001604051809103902060070160003373ffffffffffffffffffffffffffffffffffffffff1673ffffffffffffffffffffffffffffffffffffffff1681526020019081526020016000209050828160010181905550818160050190805190602001906114a4929190611b14565b506040805190810160405280600681526020017f7369676e656400000000000000000000000000000000000000000000000000008152508160030190805190602001906114f2929190611b14565b5050505050565b600080826040518082805190602001908083835b602083101515611532578051825260208201915060208101905060208303925061150d565b6001836020036101000a0380198251168184511680821785525050505050509050019150509081526020016040518091039020600301549050919050565b600080826040518082805190602001908083835b6020831015156115a95780518252602082019150602081019050602083039250611584565b6001836020036101000a038019825116818451168082178552505050505050905001915050908152602001604051809103902060010160009054906101000a900473ffffffffffffffffffffffffffffffffffffffff169050919050565b61160f611b00565b6000836040518082805190602001908083835b6020831015156116475780518252602082019150602081019050602083039250611622565b6001836020036101000a038019825116818451168082178552505050505050905001915050908152602001604051809103902060070160008373ffffffffffffffffffffffffffffffffffffffff1673ffffffffffffffffffffffffffffffffffffffff1681526020019081526020016000206005018054600181600116156101000203166002900480601f0160208091040260200160405190810160405280929190818152602001828054600181600116156101000203166002900480156117515780601f1061172657610100808354040283529160200191611751565b820191906000526020600020905b81548152906001019060200180831161173457829003601f168201915b5050505050905092915050565b600080826040518082805190602001908083835b6020831015156117975780518252602082019150602081019050602083039250611772565b6001836020036101000a0380198251168184511680821785525050505050509050019150509081526020016040518091039020600501549050919050565b6117dd611c1e565b6000826040518082805190602001908083835b60208310151561181557805182526020820191506020810190506020830392506117f0565b6001836020036101000a03801982511681845116808217855250505050505090500191505090815260200160405180910390206006018054806020026020016040519081016040528092919081815260200182805480156118cb57602002820191906000526020600020905b8160009054906101000a900473ffffffffffffffffffffffffffffffffffffffff1673ffffffffffffffffffffffffffffffffffffffff1681526020019060010190808311611881575b50505050509050919050565b600080600083519250600091505b82821015611af95783828151811015156118fb57fe5b906020019060200201519050806000866040518082805190602001908083835b602083101515611940578051825260208201915060208101905060208303925061191b565b6001836020036101000a038019825116818451168082178552505050505050905001915050908152602001604051809103902060070160008373ffffffffffffffffffffffffffffffffffffffff1673ffffffffffffffffffffffffffffffffffffffff16815260200190815260200160002060000160006101000a81548173ffffffffffffffffffffffffffffffffffffffff021916908373ffffffffffffffffffffffffffffffffffffffff1602179055506040805190810160405280600781526020017f70656e64696e67000000000000000000000000000000000000000000000000008152506000866040518082805190602001908083835b602083101515611a625780518252602082019150602081019050602083039250611a3d565b6001836020036101000a038019825116818451168082178552505050505050905001915050908152602001604051809103902060070160008373ffffffffffffffffffffffffffffffffffffffff1673ffffffffffffffffffffffffffffffffffffffff1681526020019081526020016000206003019080519060200190611aeb929190611b14565b5081806001019250506118e5565b5050505050565b602060405190810160405280600081525090565b828054600181600116156101000203166002900490600052602060002090601f016020900481019282601f10611b5557805160ff1916838001178555611b83565b82800160010185558215611b83579182015b82811115611b82578251825591602001919060010190611b67565b5b509050611b909190611c32565b5090565b828054828255906000526020600020908101928215611c0d579160200282015b82811115611c0c5782518260006101000a81548173ffffffffffffffffffffffffffffffffffffffff021916908373ffffffffffffffffffffffffffffffffffffffff16021790555091602001919060010190611bb4565b5b509050611c1a9190611c57565b5090565b602060405190810160405280600081525090565b611c5491905b80821115611c50576000816000905550600101611c38565b5090565b90565b611c9791905b80821115611c9357600081816101000a81549073ffffffffffffffffffffffffffffffffffffffff021916905550600101611c5d565b5090565b905600a165627a7a723058205cd260796c2a12defc709fdb2d03c2dba725a35d61929c3c6385bc5ef965395e0029",
  "source": "pragma solidity 0.4.19;\n\ncontract CANSign {\n    \n    struct Signer {\n        address _address;\n        uint256 timestamp;\n        uint256 dateOfBirth;\n        string status;\n        string name;\n        string email;\n    }\n    \n    struct Document {\n        string hash;\n        address creator;\n        string name;\n        uint256 lastModified;\n        uint256 uploadedAt;\n        uint256 expirationDate;\n        address[] _signers;\n        mapping (address => Signer) signers;\n    }\n    \n    mapping (string => Document) documents;\n    \n    function CANSign() public {}\n    \n    function addDocument(\n        string _hash, \n        string _name,\n        uint256 _lastModified, \n        uint256 _uploadedAt, \n        uint256 _expirationDate, \n        address[] _signers) public {\n\n        documents[_hash].hash = _hash;\n        documents[_hash].creator = msg.sender;\n        documents[_hash].name = _name;\n        documents[_hash].lastModified = _lastModified;\n        documents[_hash].uploadedAt = _uploadedAt;\n        documents[_hash].expirationDate = _expirationDate;\n        documents[_hash]._signers = _signers;\n\n        addSignersToDocument(_hash, _signers);\n    }\n\n    function sign(string _hash, uint256 _timestamp, string _email) public {\n        Signer storage signer = documents[_hash].signers[msg.sender];\n\n        signer.timestamp = _timestamp;\n\n        signer.email = _email;\n\n        signer.status = 'signed';\n    }\n\n    function addSignersToDocument(string _hash, address[] _signers) internal {\n        uint arrayLength = _signers.length;\n        \n        for (uint i = 0; i < arrayLength; i++) {\n            address signerAddress = _signers[i];\n\n            documents[_hash].signers[signerAddress]._address = signerAddress;\n            documents[_hash].signers[signerAddress].status = 'pending';\n        }\n    }\n\n    function getDocumentSigners(string _hash) view public returns (address[]) {\n        return documents[_hash]._signers;\n    }\n\n    function getDocumentId(string _hash) view public returns (string) {\n        return documents[_hash].hash;\n    }\n\n    function getDocumentCreator(string _hash) view public returns (address) {\n        return documents[_hash].creator;\n    }\n\n    function getDocumentName(string _hash) view public returns (string) {\n        return documents[_hash].name;\n    }\n\n    function getDocumentExpirationDate(string _hash) view public returns (uint256) {\n        return documents[_hash].expirationDate;\n    }\n\n    function getDocumentLastModifiedDate(string _hash) view public returns (uint256) {\n        return documents[_hash].lastModified;\n    }\n\n    function getDocumentUploadedAtDate(string _hash) view public returns (uint256) {\n        return documents[_hash].uploadedAt;\n    }\n\n    function getSignerEmail(string _hash, address _signer) view public returns (string) {\n        return documents[_hash].signers[_signer].email;\n    }\n\n    function getSignerName(string _hash, address _signer) view public returns (string) {\n        return documents[_hash].signers[_signer].name;\n    }\n\n    function getSignerStatus(string _hash, address _signer) view public returns (string) {\n        return documents[_hash].signers[_signer].status;\n    }\n\n    function getSignerTimestamp(string _hash, address _signer) view public returns (uint256) {\n        return documents[_hash].signers[_signer].timestamp;\n    }    \n}\n",
  "sourcePath": "/Users/GustavoIbarra/Projects/Solidity/cansign-v1/contracts/CANSign.v1.sol",
  "compiler": {
    "name": "solc",
    "version": "0.4.19+commit.c4cbbb05.Emscripten.clang"
  },
  "schemaVersion": "2.0.0",
  "updatedAt": "2018-06-04T23:58:29.639Z"
}